S00B00006173702E73726563D5
S315080000009016002095010008E9010008E90100089A
S31508000010E9010008E9010008E9010008E90100080A
S31508000020000000000000000000000000D9020008DF
S31508000030E90100080000000027020008092A000854
S31508000040092A0008092A0008092A0008092A0008B6
S31508000050092A0008092A0008092A0008092A0008A6
S31508000060092A0008092A0008092A0008092A000896
S31508000070092A0008092A0008092A0008092A000886
S31508000080092A0008092A0008092A0008092A000876
S31508000090092A0008092A0008092A0008092A000866
S315080000A0092A0008092A0008092A0008092A000856
S315080000B0092A0008092A0008092A0008092A000846
S315080000C0092A0008092A0008092A0008092A000836
S315080000D0092A0008092A0008092A0008092A000826
S315080000E0092A0008092A0008092A0008092A000816
S315080000F0092A0008092A0008092A0008092A000806
S31508000100092A0008092A0008092A0008092A0008F5
S31508000110092A0008092A0008092A0008092A0008E5
S31508000120092A0008092A0008092A0008092A0008D5
S31508000130092A0008092A0008092A0008092A0008C5
S31508000140092A0008092A0008092A0008092A0008B5
S31508000150092A0008092A0008092A0008092A0008A5
S31508000160092A0008092A0008092A0008092A000895
S31508000170092A0008092A0008092A0008092A000885
S31508000180092A0008092A0008092A0008092A000875
S31508000190092A000871B604F0ABFC00200D490E4A86
S315080001A0914203D2086004319142FBD30B490C4AB1
S315080001B0914206D20B4B0868186004310433914209
S315080001C0F9D300F005F802F065FCFEE7704700BFBA
S315080001D07047000008000020583D00207867000896
S315080001E08067000800000020EFF31181EFF310820A
S315080001F051EA02211EF0040F05D0EFF3098020E929
S31508000200024002B501E002B56846744A13680CB4A8
S31508000210EFF30583724951F8232090470FBC01601C
S3150800022082F311881847102080F311886D490868F1
S3150800023058B1EFF309821EF0100F01D122ED108A92
S3150800024022E9F00F8261C0F81CE067480068086080
S31508000250A0B1C16911F07F42B2F17F4F1AD182690C
S31508000260B2E8F00F11F0100F01D1B2EC108A82F348
S315080002700988002071B680F311880847EFF30980D2
S315080002805A495FF0807220E90600183880F3098819
S31508000290DFF840F0426A4AB1554A5FF080738069D8
S315080002A0B0E8F00F20E90E00143807E08069B0E8DE
S315080002B0F00F5FF0807220E90600183880F309888D
S315080002C0464801210160BFF34F8FDFF808F0BDEC07
S315080002D0108A7047FDFFFFFF40480021016000209B
S315080002E080F31188A0692900B0E8F00F11F0100F0B
S315080002F001D1B0EC108A80F3098808473D480168A7
S3150800030081F30888022080F31488BFF36F8F3A4977
S31508000310D1F814D034490968324A61B61BE0022381
S3150800032083F31488BFF36F8F2F4909682D4A12E0AB
S31508000330EFF3148313F0040306D02DED108A02237D
S3150800034083F31488BFF36F8F43622DE9F00FC0F86B
S315080003501CE0C0F818D0116089B1CA6912F07F4054
S31508000360B0F17F4F02D10C00150000DFD1F818D08C
S31508000370BDE8F00F4B6A0BB1BDEC108A1047174861
S3150800038000210160BFF34F8F002080F31188BFF36F
S315080003904F8F30BFFBE700BF104800210160BFF355
S315080003A04F8F002080F311880E4801688A685068CC
S315080003B0DFF848E0D2F808F0002181F31488BFF38B
S315080003C06F8F02F0A1BB00BFA0F15E00002800DC21
S315080003D07047A0F137000028FBDC7047503C00202E
S315080003E068640008EC3C0020E83C00207E03000816
S315080003F0CE02000824660008B4660008FD3C000822
S315080004000EB410B58BB00DAA044652F8041B01921F
S3150800041002A800F03DFF02A9204601F087FC0BB0B8
S31508000420BDE8104003B0704700B58BB00B4600928C
S315080004300549024602A800F0F7FF02A9032001F0C9
S3150800044075FC0BB05DF804FBD05500082DE9F04F9C
S31508000450854BDFF864B2854CDFF86082DFF860A26E
S31508000460064693E807008FB003AB83E80700771EBC
S3150800047000254FEA870909F138036B44013553F81B
S315080004802C3C009332462B4651460520FFF7B8FF11
S31508000490DBF8003023B10022013293422168FBD1F8
S315080004A018F807300022533B08F80720272BE2D814
S315080004B001A252F823F000BF3506000877040008A9
S315080004C07704000877040008770400087704000812
S315080004D017060008EF0500087704000877040008E7
S315080004E077040008770400087704000877040008F2
S315080004F0770400087704000877040008CF05000889
S31508000500A3050008770400087704000877040008A4
S3150800051077040008770400087704000877040008C1
S3150800052077040008770400087704000877040008B1
S315080005307704000877040008850500087704000892
S315080005407704000877040008770400087704000891
S315080005506705000859050008454932460520FFF792
S315080005604FFF00DE87E7324642490620FFF748FF7D
S3150800057003F09CFC021EBFF67EAF3F49C420FFF77E
S3150800058053FF78E732463D490620FFF739FF03F067
S31508000590B7F8021EBFF66FAF3949B820FFF744FF18
S315080005A069E7324637490620FFF72AFF03F0A6FB1C
S315080005B0021E54DB3448354B08900224B52206A99E
S315080005C00020CDE90923069401F0B0FBFEE7324688
S315080005D02F490620FFF714FF2E4803F037FB021EAB
S315080005E0BFF649AF2C49C020FFF71EFF43E704F0CA
S315080005F0B3F8021E2EDB1E4932460520FFF700FF20
S3150800060000DE04F0BDF8021EBFF635AF2349D3203D
S31508000610FFF70AFF2FE7324621490620FFF7F0FECB
S3150800062003F072FC021EBFF626AF1E49C820FFF76C
S31508000630FBFE20E732461C490620FFF7E1FE154877
S3150800064003F0A8F8021EBFF616AF1849BC20FFF73C
S31508000650EBFE10E71649D020FFF7E6FECBE7154973
S31508000660B420FFF7E1FEA5E7C455000814000020F2
S3150800067078560008585600085C56000818560008B0
S315080006801C56000804560008D055000814560008E1
S315080006904056000880969800445600089C56000864
S315080006A0685600086C560008285600082C5600089C
S315080006B090560008085600080C000020100000207C
S315080006C0E455000870B502463C498AB00446052040
S315080006D0FFF796FE04F0DEF8012803D03849042017
S315080006E0FFF78EFE04F0EEF8012803D03549042002
S315080006F0FFF786FE04F0D6F8054604F0DBF8064652
S31508000700204604F0D9F930490090334606202A4697
S31508000710FFF776FE204604F0CFF9B0B12B49052045
S31508000720FFF76EFE02F0E4F9002802AC27DB284842
S31508000730284B049002254FF4847221460020CDE907
S315080007400523029501F0F2FAFEE7234803F0E2FFDB
S31508000750002821DB062002F069FE002801DB0AB02A
S3150800076070BD1E4B00904FF4867202A8184900F01F
S315080007705BFE02A9032001F0D9FA0AB070BD009009
S31508000780174B1349204640F2071200F04DFE21464A
S31508000790032001F0CBFACAE7124B0D49009040F24C
S315080007A00B1202A800F040FE02A9032001F0BEFACF
S315080007B0062002F03BFE0028D1DAD2E7A856000848
S315080007C0D456000804570008345700086057000834
S315080007D0D05500081456000808000020A85700083D
S315080007E0845700089057000800B509208BB003F01D
S315080007F041FF00280CDB0A2003F03CFF002818DB29
S315080008000B2003F037FF002824DB0BB05DF804FB50
S31508000810184B194900904FF48D7202A800F004FE97
S3150800082002A9032001F082FA0A2003F023FF002818
S31508000830E6DA124B1049009040F21B1202A800F0AB
S31508000840F3FD02A9032001F071FA0B2003F012FF51
S315080008500028DADA0A4B00904FF48E7202A806498D
S3150800086000F0E2FD02A9032001F060FA0BB05DF882
S3150800087004FB00BFBC570008D0550008D457000831
S31508000880EC57000800B509208BB003F0F3FE0028EA
S315080008900CDB0A2003F0EEFE002818DB0B2003F021
S315080008A0E9FE002824DB0BB05DF804FB184B194958
S315080008B000904FF4947202A800F0B6FD02A9032036
S315080008C001F034FA0A2003F0D5FE0028E6DA124BC6
S315080008D01049009040F2291202A800F0A5FD02A9CD
S315080008E0032001F023FA0B2003F0C4FE0028DADA0D
S315080008F00A4B00904FF4957202A8064900F094FD41
S3150800090002A9032001F012FA0BB05DF804FB00BF40
S31508000910BC570008D0550008D4570008EC57000803
S3150800092000B50C4B8BB0186803F02CFA002802DBD4
S315080009300BB05DF804FB084B009040F2331202A896
S31508000940064900F071FD02A9032001F0EFF90BB08A
S315080009505DF804FB0800002004580008D05500087C
S315080009602DE9F047012190B004467F2001F0E0F917
S31508000970021EC0F2A28222469B490520FFF740FDCF
S31508000980012001F0CDF8041EC0F284824FF4A26162
S31508000990012001F005F9021EC0F2B38204A803F093
S315080009A069FC021EC0F2A782904B914C2268013B5B
S315080009B0FCD106A803F05EFC021EC0F296820498DB
S315080009C0069A8C498C4B4FF47A75121A0220B3FB9F
S315080009D0F2F305FB03F30B6002F028FD021EC0F2DA
S315080009E07E82032002F022FD021EC0F272820420DB
S315080009F002F01CFD021EC0F26682DFF82492DFF8C0
S31508000A0024827E4F0125022601220DF10B01104694
S31508000A1001F0A4F80028C0F2A2809DF80B20D31E8E
S31508000A20772B00F2A980DFE813F07C00A700A70067
S31508000A30A700A700A700A700A700A700A700A70070
S31508000A40A700A700A700A700A700A700A700A70060
S31508000A50A700A700A700A700A700A700A700A70050
S31508000A60A700A700A700A700A700A700A700A70040
S31508000A70A700A700A700A700A700A700A700A70030
S31508000A80A700A700A700750272027802A700A700B0
S31508000A90A700A700A700A700A700A7008701750160
S31508000AA06301A700A70052014201D000A700A700D2
S31508000AB0A700BD00A700A700A700A700A700A700DA
S31508000AC0A700A700A7007C00A7007800A700A7003A
S31508000AD0AC003101A70078007800A700A700A7009E
S31508000AE0A700A700A70020010F01FF0078007800E3
S31508000AF0A700A700A700A700A700A70024021302C3
S31508000B00A700A700A7000602EA017800D901C801D4
S31508000B10BB01AA0199017800780009EB050303F8DF
S31508000B20012C9DF80B30032B02D0512B7FF46CAFB0
S31508000B3033490520FFF764FC01F0DAFF021EC0F214
S31508000B40B6812E482F4B0A90022440F2172208A994
S31508000B500020CDE90B23089401F0E8F8FEE70090A1
S31508000B60394608A843464FF4C77200F05DFC08A949
S31508000B70032001F0DBF850E723490620FFF740FC85
S31508000B80CFE703F0ABFB4FF47A738246013B21684B
S31508000B90FCD103F0A3FB1D49034652460520FFF787
S31508000BA02FFCBEE72A461A490620FFF729FC03A9A7
S31508000BB0304602F05FFD021EC0F2B981039B15495B
S31508000BC02A460520FFF71CFCABE713490620FFF76A
S31508000BD017FC012003F040FC021EA2DA0F4940F27E
S31508000BE0EF10FFF721FC9CE75458000840420F001D
S31508000BF0140000200C0000200084D717D0550008E8
S31508000C000C5D000814560008F45C0008985C00089F
S31508000C10985A0008B05A0008105C0008245C0008BE
S31508000C201000002040590008C7490620FFF7E8FBD6
S31508000C30012003F0BFFB021EBFF673AFC34940F2A3
S31508000C40EB10FFF7F1FB6CE7C1490620FFF7D8FB6D
S31508000C50C049012003F082FC021EBFF662AFBE49FE
S31508000C6040F2F310FFF7E0FB5BE72A46BB49062094
S31508000C70FFF7C6FB304602F0D9FB021EBFF651AF9E
S31508000C80B7494FF4D470FFF7CFFB4AE7B5492A4670
S31508000C900620FFF7B5FB304602F03EFE031EC0F203
S31508000CA04C81B1492A460520FFF7AAFB39E7AF4927
S31508000CB00620FFF7A5FB012003F0A0FC021EBFF6E5
S31508000CC030AFAB4940F2F710FFF7AEFB29E7A94969
S31508000CD02A460620FFF794FB304602F00DFC031E59
S31508000CE0C0F21E81A4492A460520FFF789FB18E7AA
S31508000CF02A46A2490620FFF783FB0921304602F05F
S31508000D003FFC021EBFF60DAF9D4940F2B710FFF734
S31508000D108BFB06E72A469B490620FFF771FB0A214B
S31508000D20304602F02DFC021EBFF6FBAE964940F295
S31508000D30BB10FFF779FBF4E62A4694490620FFF72D
S31508000D405FFB0B21304602F01BFC021EBFF6E9AE24
S31508000D508F4940F2BF10FFF767FBE2E62A468D4946
S31508000D600620FFF74DFB304603F00CF8021EBFF6CF
S31508000D70D8AE894940F2E110FFF756FBD1E62A467C
S31508000D8086490620FFF73CFB304602F05DFD021E51
S31508000D90BFF6C7AE82494FF4E570FFF745FBC0E6DC
S31508000DA001217F2000F0C4FF021EBFF6BAAE7D49BE
S31508000DB040F20320FFF738FBB3E62A467A490620B5
S31508000DC0FFF71EFB304602F07FFE021EBFF6A9AEF5
S31508000DD0764940F2D910FFF727FBA2E62A4674495E
S31508000DE00620FFF70DFB304603F0C6F8021EBFF6D5
S31508000DF098AE704940F2B310FFF716FB91E66E49BC
S31508000E000620FFF7FDFA092003F034FC021EC0F2A3
S31508000E10FD800A2003F02EFC021EC0F2F1800B2092
S31508000E2003F028FC021EBFF67CAE644940F2E710C8
S31508000E30FFF7FAFA75E601213F2000F079FF021E56
S31508000E40BFF66FAE5E4940F20720FFF7EDFA68E697
S31508000E502A465C490620FFF7D3FA304602F0A2FE7E
S31508000E60021EBFF65EAE584940F2DD10FFF7DCFA07
S31508000E7057E62A4655490620FFF7C2FA304602F0D9
S31508000E8093FD021EBFF64DAE514940F2D510FFF74D
S31508000E90CBFA46E663B229333FF478AD00F0DCFAC4
S31508000EA04C49024623120320FFF7AAFA6EE54A497F
S31508000EB040F21620FFF7B8FA43E63A494FF4A37012
S31508000EC0FFF7B2FA57E545494FF4C470FFF7ACFA95
S31508000ED093E5434940F28710FFF7A6FA87E54149AB
S31508000EE04FF4C370FFF7A0FA7BE53F494FF4BF7094
S31508000EF0FFF79AFA63E53D494FF4BE70FFF794FA97
S31508000F0052E53B4940F25510FFF78EFA46E50225B1
S31508000F10032606E60125022676E50325042673E55B
S31508000F2034491A464FF4D670FFF77EFAF9E5324986
S31508000F3040F2C310FFF778FAF3E530491A464FF442
S31508000F40E770FFF771FAECE5E85B0008FC5B000860
S31508000F50385C0008404B4C00545C00086459000893
S31508000F60745900080C5B00081C5B0008705C0008DC
S31508000F70845C00088459000894590008E45900085C
S31508000F80005A0008205A00083C5A00085C5A000813
S31508000F90785A0008AC5B0008BC5B0008EC5A0008ED
S31508000FA0FC5A00081C5800086C5B00087C5B0008AB
S31508000FB0C4590008D4590008CC5B0008EC5700084F
S31508000FC0B85C00088C5B00089C5B00084C5B00085A
S31508000FD05C5B0008785800088457000830590008F8
S31508000FE02059000810590008FC580008E85800085D
S31508000FF0A0580008AC590008CC5A0008345B000811
S3150800100005494FF4F370FFF70FFA08E7034940F272
S31508001010E510FFF709FAFCE6D4570008BC570008A4
S315080010202DE9F04F85B00DF10408DDE90FB6DDF8BE
S3150800103038901F464546002401E08C450CD3B0FB8A
S31508001040F1F301FB130C013412F80CC005F801CBBF
S315080010500B2C84461846F0D1B9F1000F06D01FB301
S31508001060013FBBF1000F22D02D20B047A7420FD970
S315080010701BF0010F14BF4FF0300A4FF0200A254627
S3150800108050460135B047BD42FAD3B9F1000F08D131
S31508001090444414F8010DB047A045FAD105B0BDE89F
S315080010A0F08FBBF1000FF3D12D20B047F0E7A74230
S315080010B0DED8F9E72DE9F0438046044618F8010B17
S315080010C085B0002855D00F461546002606E0A847E5
S315080010D0444608F10108207800284AD02528F6D188
S315080010E0042EF4D86078302849D002340021A0F1C3
S315080010F03003092B4FF000030BD803EB830300EBF7
S31508001100430314F8010BA0F13002092AA3F13003B6
S31508001110F3D96C2830D000F0DF02542A2CD0782876
S3150800112022D857282FD9583820281DD8DFE800F0AC
S31508001130611C1C1C1C1C1C1C1C1C1C67511C1C1C1C
S315080011401C1C1C1C1C1C1C1C111C1C331C431C1C9E
S3150800115011000022CDE901150092334A57F82600FE
S3150800116010210136FFF75CFF04F1010820780028FA
S31508001170B4D105B0BDE8F08314F8010BCFE7A07829
S3150800118001210334B3E7002842D02528ECD1A8472B
S3150800119004F10108EAE706F1010957F8266016F88E
S315080011A0010B04F1010820B1A84730780136002860
S315080011B0FAD14E468FE7CDE901150022009257F87D
S315080011C026001A4A0A21FFF72BFF013604F1010807
S315080011D081E757F826000028CDE901151BDB002218
S315080011E000920A21114AFFF71BFF013604F1010894
S315080011F071E700220092CDE901150D4AAEE717F80E
S31508001200260006F10109A84704F101084E4662E7DF
S31508001210A046013C5FE7012200924042034A0A21A8
S31508001220FFF7FEFEE1E700BF206100083461000811
S315080012300C6100080268012A10B503460C460DD059
S31508001240022A0AD108480A4603F10801FFF732FFC5
S3150800125023460A20BDE81040184710BD0A46806894
S3150800126003F10C01F2E700BF345D000810B582B047
S3150800127003460C460A460548019301A9FFF71AFFDB
S315080012800A20234602B0BDE810401847545D0008FE
S31508001290012310B5036081609E460B4613F8014B87
S315080012A0002C43D0BEF1060F40D0252C9C4608D012
S315080012B01CF8014B1946002C38D06346252C9C4651
S315080012C0F6D14B7801F1020CA3F13001092905D8B2
S315080012D01CF8013BA3F130010929F9D96C2B26D05A
S315080012E003F0DF01542922D0C3B1583BD9B22029D3
S315080012F016D8202B14D8DFE803F07713131313132B
S3150800130013131313137777131313131313131313D7
S3150800131013136D13136D1377131377000CF1FF3C3A
S3150800132061460B4613F8014B002CBBD110BD614634
S3150800133011F8014B002CF3D0583C5FFA84FCBCF141
S31508001340200FAAD8202CA8D80FF2040C5CF824F099
S31508001350FD1300089B1200089B1200089B12000848
S315080013609B1200089B1200089B1200089B1200089B
S315080013709B1200089B1200089B120008EB1300083A
S31508001380151400089B1200089B1200089B120008FF
S315080013909B1200089B1200089B1200089B1200086B
S315080013A09B1200089B1200089B1200089B1200085B
S315080013B0D71300089B1200089B120008D7130008D1
S315080013C09B120008FD1300089B1200089B120008D8
S315080013D0FD13000861460EF1020352F8044B40F86B
S315080013E023400EF1010E58E7614652F8044B0EF100
S315080013F002030EF1010E40F823404EE76C2BF4D0A1
S31508001400742BF2D0542BF0D1073222F0070252F88F
S31508001410084BECE76C2BE8D0742BE6D0073222F0A9
S31508001420070252F8084BE2E72DE9F041069D984677
S31508001430084B836001230446036028460E46174678
S3150800144000F00AF82D12C4E90458C4E90676E060EB
S31508001450BDE8F081406100084130C0B241289ABF1A
S31508001460024B53F820000248704700BF706100081D
S315080014706C5D0008704700BF704700BF704700BF2B
S31508001480704700BF704700BF704700BF406800F054
S31508001490A1B800BF406800F0E3B800BF406800F09C
S315080014A081B900BF406800F029B900BF406800F064
S315080014B02BBA00BF406800F03DBA00BF024B034993
S315080014C00022C3E900127047180000209462000841
S315080014D0704700BF10B4074B074C00223F2001217C
S315080014E0C3E90042C3E90222C3E904205DF8044BBC
S315080014F09961704750020020C8620008704700BF13
S31508001500704700BF704700BF704700BF704700BFF5
S31508001510704700BF00F020BC014800F033BD00BF93
S31508001520E862000800F078BC00F044BC0A2970B5EF
S315080015300E46044602D1C368DA062CD403F00CF929
S3150800154000283EDBE36AC3B12268A36AD268D65490
S315080015502268A36A5568E26A01330132AB4208BFC2
S315080015600023C4E90A32AD1AB5FA85F56D0903F008
S3150800157007F9002825DB284670BD256B002DE3D129
S315080015801248314600F0C8FC0028F0D10F48012166
S3150800159000F0D4FCD8E70D21FFF7C8FF051EEADBEB
S315080015A0CCD00B4B586802F0C3FD051EC6DA05F110
S315080015B03503DBB2042B04D8152222FA03F3DB0722
S315080015C0D9D40123A3606FF00405D4E7E8620008C4
S315080015D07C62000870B5044603F074F998BB03F002
S315080015E0E1F8002832DB65683DB16FF0280503F0A5
S315080015F005F900282ADB284670BD40F21153C4E9D4
S315080016000335C4E90555C4E90855C4E90A552577DB
S31508001610256303F0A1F8002812DB0F4800F02EFC22
S315080016200E4B186803F0D4F901260B48022100F086
S3150800163085FCC4E9016503F0A3F80028D7DAA6609B
S315080016406FF00405D3E76FF01805D4E70123A3600C
S315080016506FF00405CFE700BFE8620008846200085F
S31508001660F0B583B0044603F02DF9002838D10546B5
S3150800167003F098F8002836DB636843B96FF028054D
S3150800168003F0BCF800282EDB284603B0F0BD03F0B3
S3150800169063F806461648174F00F038FC164B1868CC
S315080016A003F038F9656003F06BF846EA00057868D8
S315080016B002F098FD3B68019300284FEAD57507DBD1
S315080016C0019802F08FFD002805DB002DD8D002E036
S315080016D0184602F087FD0123A3606FF00405CFE7E3
S315080016E06FF01805D0E70123A3606FF00405CBE778
S315080016F0E86200087C620008846200082DE9F0416F
S3150800170006460D46174603F0DDF800283ED17368F5
S31508001710002B41D0B06800283BD1B7B1DFF88080F4
S315080017200446012028B1D8F8040002F001FD00287B
S315080017300DDB15F8011B3046FFF7F8FE002810DB15
S315080017400134A742EED180B12046BDE8F08100F110
S315080017503503DBB2042B12D8152222FA03F3DB0772
S315080017600DD5002CF0D1BDE8F0810D4B586802F07C
S315080017706DFC0028E8DA0123B3602046E5E701237B
S31508001780B3606FF00400002CEDD0DDE76FF01800B1
S31508001790DBE76FF00400D8E76FF02800D5E700BF55
S315080017A07C6200082DE9F04F83B0044688469146CE
S315080017B003F088F8002840F099806368002B00F051
S315080017C09B80A068002840F09480B9F1000F37D0BC
S315080017D0DFF830A106464FF0010BBBF1000F05D02C
S315080017E0DAF8000002F0A4FC002867DB02F0B4FF78
S315080017F0002852DB23682069A5691A689F68216A50
S315080018003F5C013D431C934208BF0023B5FA85FBA4
S315080018104FEA5B1B2361A56111B1B5EB520F2AD9BB
S3150800182002F0AEFF002838DB08F8017BE368DA0728
S3150800183006F1010607D4B145CFD1002D36D1304681
S3150800184003B0BDE8F08FDAF804300193184602F0C9
S315080018506FFC00283FDB39462046FFF767FE002865
S31508001860EDDBE8D1019802F0F1FB0028E3DA012369
S31508001870A3603046E4E72248112100F04DFB30B959
S315080018801F48012100F05AFB4FF01103237700236C
S31508001890236202F075FF0028C6DA0123A3606FF001
S315080018A00400002ECBD103B0BDE8F08F154B1868A5
S315080018B002F0CCFB0028DADB3046C1E700F135033D
S315080018C0DBB2042BE9D8152222FA03F3D907E4D5AB
S315080018D0002EE8D0B3E73530C3B2042BC7D815229B
S315080018E022FA03F3DB07C2D53046A9E76FF01800E2
S315080018F0A6E76FF00400A3E76FF02800A0E700BF93
S31508001900E86200087C62000838B504460D4602F015
S31508001910D9FF28B9636833B1A06838B9E56038BD1E
S315080019206FF0180038BD6FF0280038BD6FF004005E
S3150800193038BD00BF38B504460D4602F0C3FF40B9AE
S3150800194063684BB1A06850B9A369E26AC5E9003279
S3150800195038BD6FF0180038BD6FF0280038BD6FF03D
S31508001960040038BD10B5017F044649B9036B0BB9AD
S31508001970C36A5BB9BDE810401448012100F0F0BA0B
S31508001980124800F0C9FA0023237710BD0268436A9B
S31508001990D2680E48D15C00F0BFFA2268636A5168C3
S315080019A0E26A01338B4208BF00239142636202D088
S315080019B0013AE26210BD064B586802F047FB002860
S315080019C0B7BF0123E26AE26AA360F1E7E8620008AA
S315080019D07C62000870B50446414800F0A5FAE36841
S315080019E0D905C0B22ED513285DD0226B002A4DD05A
S315080019F0112801D09A0528D5E36A00222263002B14
S31508001A0043D0374D374E0EE02268636A5168E26A62
S31508001A1001338B4208BF00239142636239D0013AF1
S31508001A20E262002A31D02268636AD2682846D15C0D
S31508001A3000F072FA0028E7D1BDE870402848012175
S31508001A4000F07CBA226B002AD2D12368A1691A68F1
S31508001A5091421AD09A686369D054226863691168FA
S31508001A60A26901338B4208BF00236361F2B1E368C0
S31508001A7001325B05A26108D5236A33B923681B685E
S31508001A8003EB4303B2EB930F1BD270BD1128DCD1D5
S31508001A9070BD706802F0DAFA0028B8BF0123E26A5E
S31508001AA0B8BFA360BBE70123236370BD0D4B18685D
S31508001AB002F0CCFA0028B7BF0123A269A269A36085
S31508001AC0D5E70748132100F027FA28B90448012169
S31508001AD000F034FA132323770123236270BD00BF75
S31508001AE0E86200087C6200080346406808B1D86AC4
S31508001AF000B9704710B418685A6AC468A25C0A70BC
S31508001B0019685A6A4C68D96A01200244A24208BF79
S31508001B10002201395A625DF8044BD962704700BF4A
S31508001B2010B5044602F0CEFE98B9002C0EDD0A4B1D
S31508001B305A68A2420ADB04F180441B68013C53F848
S31508001B4024000368BDE810401B6818476FF01100B1
S31508001B5010BD6FF0180010BDBC62000870B50446D1
S31508001B600E46154602F0AEFEA8B9002C10DD0B4B4A
S31508001B705A68A2420CDB04F180441B68013C2A46E1
S31508001B8053F82400036831469B68BDE8704018473F
S31508001B906FF0110070BD6FF0180070BDBC620008D0
S31508001BA070B504460D4602F08DFEA0B9002C0FDD77
S31508001BB00A4B5A68A2420BDB04F180441B68013CBD
S31508001BC0294653F824000368BDE870401B69184786
S31508001BD06FF0110070BD6FF0180070BDBC62000890
S31508001BE000F036B92DE9F04F8C468BB0EFF310892B
S31508001BF072B6264C0126636986401E4222D0244BC3
S31508001C00E768DA681B68019302EB471801379F42B9
S31508001C1028BF00271F4BD4F804A01B680D46D3F82D
S31508001C2024B00FCDC646AEE80F0095E80F008EE843
S31508001C300F00019BC8F804B05345E7600DD90AF1B7
S31508001C4001036360A3691E420ED1B9F1010F00D0EA
S31508001C5062B600200BB0BDE8F08F2369A760013398
S31508001C602361A3691E42F0D00A4B1B685D6ABCE873
S31508001C700F0002AC0FC49CE80F0084E80F00064969
S31508001C80039502A8FFF7D6FADFE700BF5002002047
S31508001C90C8620008103C0020E11B00082DE9F0434B
S31508001CA0EFF3108772B6184D012F6E6827D006B36A
S31508001CB00027164AA968D368D5F8108003EB411E99
S31508001CC013684C1C84469C4228BF0024BEE80F00BB
S31508001CD0ACE80F009EE80F00013E4FF000098CE8C3
S31508001CE00F00C5E90164C5F8109027B14046BDE864
S31508001CF0F0836FF0280862B64046BDE8F0836FF0BF
S31508001D002808002ED5D1F1E750020020C862000845
S31508001D10EFF3108372B6012B034BC3E9050100D01C
S31508001D2062B60020704700BF50020020FFF75ABF76
S31508001D30FFF7EEBF00B583B0034601220DF1070198
S31508001D4003488DF80730FFF7D9FC03B05DF804FBAC
S31508001D501800002000F07CB830B51248124D134C1C
S31508001D6089B0FFF737FC124B02930122694605201A
S31508001D700092FFF7DBFF6846FFF790FF002809DBB4
S31508001D800CD121466846FFF755FA6846FFF786FFE5
S31508001D900028F5DA286801F059FFECE72146FFF735
S31508001DA065FAEEE718000020D8620008351D00081D
S31508001DB06C5E000830B5154C8BB003E09DF8070043
S31508001DC000F046F80DF107012046FFF78DFE05469F
S31508001DD00028F3D102A8FFF761FF041E0FDB29468E
S31508001DE00B4A0C480A4DFFF765F954B9294602A86B
S31508001DF0FFF720FA02A8FFF751FF041EF5DA0BB029
S31508001E0030BD03492046FFF731FAEFE718000020F6
S31508001E10551D00088C5E000810B50B4B0B4988B0A1
S31508001E20D3E900230291012403200721CDE9030108
S31508001E300094694600240520CDE905420793FFF77B
S31508001E4075FF08B010BD00BFE0620008F062000828
S31508001E500A2838B5044607D0074D2146284600F01B
S31508001E605BF80028F9D038BD034D0D21284600F04F
S31508001E7053F80028F9D0EFE7E862000810B50446E1
S31508001E801F482368D968002221F400518342D9608B
S31508001E901A61DA605A612FD000F0A8FB034662681F
S31508001EA01849A1FB03031848A1FB02124FF47A7CD8
S31508001EB05B09520912010CFB03F3B3FBF2F3226828
S31508001EC0A0FB034189090CFB11331B0103F5FA73C7
S31508001ED0A0FB0303C3F3831343EA01139360D36898
S31508001EE043F00C03D360536943F001035361D3688D
S31508001EF043F40053D36010BD00F09EFB0346CEE7C3
S31508001F00001001401F85EB51D34D62100268D3685B
S31508001F1023F40053D36070470368186810F08000F4
S31508001F201CBF59600120704703681A68920646BFAD
S31508001F305868C0B24FF0FF30704700BF012908D07B
S31508001F40022900D070470268D36843F02003D360A3
S31508001F5070470268D36843F08003D360704700BFB8
S31508001F60012908D0022900D070470268D36823F0F7
S31508001F702003D36070470268D36823F08003D360D8
S31508001F80704700BF03681A68910606D41B681B06CB
S31508001F9000D470470848FFF7E5BC10B50446064864
S31508001FA0FFF718FD23681B681A0600D410BDBDE8A4
S31508001FB010400148FFF7D6BC1800002008B5FFF707
S31508001FC059FAFFF759FAFFF759FAFFF759FAFFF7DF
S31508001FD059FAFFF759FAFFF771FAFFF779FAFFF797
S31508001FE079FAFFF78BFAFFF78BFAFFF78BFAFFF709
S31508001FF08BFAFFF78BFABDE80840FFF789BA00BFEE
S315080020000148FFF789BA00BF8862000808B500F0E2
S31508002010EBFD02F003F802F097F902F07DFA02F000
S3150800202065FCBDE8084002F033BD00BFF0B50368A3
S31508002030DE0783B0044638D5A0498A6802F00C0248
S31508002040042A00F0EE808A6802F00C02082A03D1FE
S315080020504A68550200F1E580984D0023AB7002F0FE
S31508002060CFFD41F28837064605E002F0C9FD831B1D
S31508002070BB4200F2C5802B689903F6D42379AB706E
S315080020806368002B00F00A8102F0BAFD8B4E054604
S3150800209041F2883705E002F0B3FD401BB84200F272
S315080020A0AF8033689A03F6D523689F072DD5834AF0
S315080020B0916811F00C0F00F0AA80916801F00C01EC
S315080020C0082900F0A080E368002B00F0D6807C4B3E
S315080020D07A4E01221A6002F093FD054605E002F0E9
S315080020E08FFD401B642800F28B8033689807F6D56D
S315080020F03168F82292FAA2F22369B2FA82F2934080
S3150800210021F0F8021343336023681A071FD45807CF
S3150800211034D4A369C3B1694DAA6802F00C02082A2F
S315080021207CD0022B664B4FF000021A6600F0CC807A
S3150800213002F066FD044604E002F062FD001B642816
S315080021405ED82B689B01F7D4002003B0F0BD636905
S31508002150002B70D05A4B594E0122C3F8802E02F03C
S315080021604FFD054604E002F04BFD401B642847D8A6
S31508002170736F9B07F7D523685807CAD54F4B514D40
S315080021801A6C42F080521A641B6C03F08053019358
S31508002190019B2B6843F480732B6002F031FD0646E1
S315080021A004E002F02DFD801B642829D82B68D90588
S315080021B0F7D5424D002385F8703002F021FD41F233
S315080021C08837064604E002F01BFD801BB84217D884
S315080021D02B6F9A07F7D4237A85F87030A368002BFB
S315080021E000F0B28002F00CFD344E054641F2883705
S315080021F0336F9B078DD402F003FD401BB842F7D915
S31508002200032003B0F0BD526856023FF55CAF2B4A77
S315080022101268950720D5E268012A1DD0012003B06F
S31508002220F0BD264A126890037FF53FAF6268002A20
S315080022307FF43BAFF2E7224A204EC2F8803E02F016
S31508002240DFFC054604E002F0DBFC401B6428D7D817
S31508002250736F9F07F7D48EE7184DF821286891FA0F
S31508002260A1F12269B1FA81F120F0F8008A4002430F
S315080022702A601A077FF54BAF69E7114A0F4E1360BC
S3150800228002F0BEFC054604E002F0BAFC401B6428D6
S31508002290B6D833689907F7D4236836E702F0B0FC56
S315080022A0064E054641F2883704E002F0A9FC401BB9
S315080022B0B842A5D833689B03F7D4F5E60038024040
S315080022C0000047420070004002F09AFC064604E00F
S315080022D002F096FC801B642892D82B689901F7D4E3
S315080022E047F6C07090FAA0F04FF44036B0FA80F086
S315080022F096FAA6F64FF07061B6FA86F691FAA1F14B
S31508002300A36A5A08013AB240D4E907363343666AE3
S315080023108640E06AB1FA81F1334300FA01F11343CA
S3150800232011480B4301226B60026602F069FC0F4DEF
S31508002330044605E002F064FC001B64283FF660AF23
S315080023402B689A01F6D5FFE602F05AFC074E0546B9
S3150800235041F28837336F98077FF5DBAE02F050FC01
S31508002360401BB842F6D94BE7000047420038024006
S315080023707F4A136803F00F038B422DE9F0410C46A0
S3150800238005465AD2CBB21370136803F00F038B427B
S3150800239002D00120BDE8F08103689F0706D575497C
S315080023A080688A6822F0F00202438A60DE072BD52D
S315080023B06A68012A00F0A380931E012B6D4B1B68E7
S315080023C040F299809907E4D56A4CA36823F0030381
S315080023D01343A36002F014FC6B68012B064600F059
S315080023E0A280022B00F0AD80032B00F0B88041F2EA
S315080023F0883704E002F004FC831BBB4267D8A36855
S3150800240013F00C0FF6D12B685A0706D55949E86818
S315080024108A6822F4E05202438A601B0707D5554AA8
S315080024202969936823F4604343EAC10393600F2044
S3150800243002F0E4FB0020BDE8F08103689A0706D5A0
S315080024404C4980688A6822F0F00202438A60DF07F6
S3150800245025D56A68012A2DD0931E012B454B1B688A
S3150800246038D9990795D5434EB36823F00303134328
S31508002470B36002F0C5FB6B68012B07462DD0022B13
S3150800248043D0032B1BD041F2883804E002F0B8FB96
S31508002490C31B43451BD8B36813F00C0FF6D1344B56
S315080024A0E2B21A701B6803F00F03A3427FF471AF00
S315080024B02B68A9E72F4B1B689E03D4D469E741F222
S315080024C08834B36802F09CFBC01BA042F9D90320EC
S315080024D0BDE8F0819801C6D45BE741F2883804E08C
S315080024E002F08EFBC01B4045F1D8B36803F00C031D
S315080024F0042BF5D1D3E798013FF566AF49E71D4BA5
S315080025001B689C033FF560AF43E741F2883804E057
S3150800251002F076FBC01B4045D9D8B36803F00C031C
S31508002520082BF5D1BBE741F2883704E002F068FBD7
S31508002530831BBB42CBD8A36803F00C03042BF5D14D
S3150800254061E741F2883704E002F05AFB801BB84283
S31508002550BDD8A36803F00C03082BF5D153E741F265
S315080025608835A36802F04CFB801BA842F9D9AEE770
S31508002570003C024000380240194A936803F00C03F5
S31508002580042B2AD0082B01D0164870475168536887
S31508002590506801F03F0147F6C0725B0292FAA2F357
S315080025A0B3FA83F300EA020020FA03F04CBF0E4B9D
S315080025B00C4BB3FBF1F303FB00F0094B4FF440322D
S315080025C05B6892FAA2F2B2FA82F203F44033D3407D
S315080025D001335B00B0FBF3F070470348704700BF58
S315080025E0003802400024F40000127A0010B50F4C9F
S315080025F0FFF7C2FFA368F02292FAA2F2B2FA82F2B9
S3150800260003F0F0030A49D3400A4ACB5CD84010606D
S31508002610A3684FF4E05292FAA2F2B2FA82F203F4F5
S31508002620E053D340CB5CD84010BD00BF0038024011
S31508002630486700080000002010B50F4CFFF79CFF04
S31508002640A368F02292FAA2F2B2FA82F203F0F00339
S315080026500A49D3400A4ACB5CD8401060A3684FF4B5
S31508002660604292FAA2F2B2FA82F203F46043D340CD
S31508002670CB5CD84010BD00BF003802404867000850
S3150800268000000020274B28481A6C30B542F001029A
S315080026901A641B6C83B003F00103002100934FF00A
S315080026A0804454224FF0FF33C0E90042C0E90213C8
S315080026B0009D016102F0C2FD30BB1B4802F04AFDD5
S315080026C048BB184B194C1A6C194942F008021A648F
S315080026D01B6C03F00803019354220025C4E9001279
S315080026E001982561FF2308212046C4E9025302F018
S315080026F0C1FD98B923686FF001021A61DA6842F0E1
S315080027000102DA6003B030BD02F002FA064802F0B0
S3150800271021FD0028D5D002F0FBF9D2E702F0F8F93E
S31508002720E8E700BF00380240103C0020D03B0020FC
S31508002730000C004008B50A4802F01CFD20B90948FB
S3150800274002F018FD38B908BD02F0E2F9054802F0B2
S3150800275011FD0028F7D0BDE8084002F0D9B900BF3E
S31508002760103C0020D03B0020034B1B686FF0010291
S315080027701A6100F0BBBD00BFD03B00200EB400B507
S315080027808AB00BAA02A852F8041B0192FEF780FD34
S3150800279002A90020FFF7CAFA0AB05DF804EB03B0F5
S315080027A0704700BF031F0B2B11D80E4B820853F836
S315080027B022301A6800F00300C0004FF0FF0C0CFA34
S315080027C000FC22EA0C028140114319607047A0F10F
S315080027D01003542BFAD823F0030303F1604303F5DF
S315080027E06443E6E758670008043803280BD8DFE88F
S315080027F000F01D140B024FF0E022D2F8243D43F4FA
S315080028000023C2F8243D70474FF0E022D2F8243D59
S3150800281043F48023C2F8243D70474FF0E022D2F8F3
S31508002820243D43F40033C2F8243D70474FF0E022BC
S31508002830D2F8243D43F48033C2F8243D704700BFE4
S3150800284010B4102383F311883348344A0023012136
S3150800285003601160BFF34F8F4FF0E0223049C2F892
S31508002860081DD2F8181D2F4821F0FF01C2F8181DBF
S31508002870D2F8181D006821F47F41C2F8181DD2F855
S31508002880181D21F47F01C2F8181DD2F81C1D21F06D
S315080028907F41C2F81C1DD2F8201D21F0FF01C2F8A5
S315080028A0201DD2F8201D21F47F0141F47001C2F8E1
S315080028B0201DD2F8241D41F48031C2F8241DD2F817
S315080028C0241D41F40031C2F8241DD2F8241D41F418
S315080028D08021C2F8241DD2F8141D21F40071C2F813
S315080028E0141DD2F8881D4FF0404441F47001C2F817
S315080028F0881DC2F8344F60B100EB80000A4A0B4CC1
S315080029004000116944F823100A33834202F1180281
S31508002910F7D15DF8044B70474C3C0020503C002032
S315080029200000000844670008B46600080017002085
S3150800293082B0044B0193019B13B1019B02B0184767
S3150800294002B07047194C000870B5A0F10F03552B5B
S3150800295088B02ED802F110030F2B1CD85342DBB2D5
S315080029608E46C3F110030F284FEA03110EF0010437
S3150800297033D0A0F1100C4FEA5C131F4A0CF01F0C61
S31508002980012606FA0CF642F823609D00FFF70AFFB7
S31508002990ECB908B070BD1948194B029002244FF4DF
S315080029A0927269460020CDE903230094FFF7BEF929
S315080029B0FEE71248134B0290022440F2231269469E
S315080029C00020CDE903230094FFF7B0F9FEE705F1EF
S315080029D0604303F561431E60DBE74FF0E0252B6992
S315080029E023F002032B61FFF7DDFE002CD1D02B6903
S315080029F043F002032B61CCE780E100E0A85E000803
S31508002A00F85E0008DC5E000810B5EFF31184EFF3FA
S31508002A100582054B53F822309847044B00221A606A
S31508002A2084F3118810BD00BF68640008503C00207C
S31508002A302DE9F041D0E90867D0F8008084B0044653
S31508002A40EFF3058507490020FFF798FE064902942B
S31508002A503346C5F308020020CDE90078FFF78EFE5D
S31508002A6002F052F8305F0008505F000810B5EFF327
S31508002A70058406490020FFF781FE05490020C4F3B6
S31508002A800802FFF77BFE02F03FF800BF945F0008DC
S31508002A90B45F0008F8B5FFF791FA02F04FF800F0B6
S31508002AA0ABFAFFF7B3FA0D4B1D6855B10C4E00246F
S31508002AB0371F57F8343056F8340001349847AC427B
S31508002AC0F7D1084A084B1268526A1A6000F022FBCE
S31508002AD0064B01221A60FDF711FC00BF20660008AC
S31508002AE014660008103C00200C3D0020543C0020D1
S31508002AF008B5EFF3108372B6024B00221A60FDF791
S31508002B005BFC00BF543C0020F8B5084B1D6855B166
S31508002B10074E0024371F57F8343056F8340001346E
S31508002B209847AC42F7D101F0EFFF00BF0C660008EA
S31508002B3000660008134B1888A8B1C3B283B10022F7
S31508002B4010F00F01104B08BFC0F303110B4408BF68
S31508002B50043213F8013C0D48134450F8330070470B
S31508002B60000A0822ECE710B588B00949094B02911A
S31508002B70022497226946CDE903230094FFF7D6F885
S31508002B80FEE700BF583C002068670008603C00204C
S31508002B90C45F0008E05F000890F80EC00E4B0F4AAD
S31508002BA003EBCC0110B44C684460016020604860B7
S31508002BB00B4914880968012303FA0CF3234313808D
S31508002BC031B1084A136813B19B7B634500D910607D
S31508002BD05DF8044B704700BF603C0020583C00205D
S31508002BE0E03C0020E83C00202DE9F84F294D2A4C0E
S31508002BF02A482B492B4B00222A60226001220260B8
S31508002C000A6003F18002C3E9003308339342FAD11C
S31508002C10254A264BD2F800A000241C80BAF1000FE2
S31508002C2036D0DFF89090DFF890B0214EDFF88C8030
S31508002C302546012702E00134544529D059F8043BBA
S31508002C40013B03EB83000BEBC00003EB4303C27BA2
S31508002C5056F833E0057306EBC30122F01F0291F81C
S31508002C600CC0816042F008031EF0010F80F80DC009
S31508002C7080F80EC0C3734561DDD04B694562203BC1
S31508002C80C0E9063807730134FFF786FF5445D5D1E6
S31508002C90BDE8F88FEC3C0020E83C0020E43C00202E
S31508002CA0E03C0020603C002044670008583C0020B7
S31508002CB0B46600089C660008E01600209903000820
S31508002CC030B5D0E90014827B2A4B21604C6053F85A
S31508002CD0321003EBC204A14289B00BD0264B1A6806
S31508002CE0824201D009B030BD244A106890B11960FB
S31508002CF009B030BD6368994219D02148214B02902A
S31508002D0002249A2269460020CDE903230094FFF79E
S31508002D100DF8FEE71C491D4B029102244FF48972F7
S31508002D206946CDE903230094FFF700F8FEE7184C3F
S31508002D30114D2388012101FA02F223EA02032A68C7
S31508002D4023808242CED10D4A106810B173B92B6028
S31508002D50C8E70D490D4B029102244FF48672694665
S31508002D60CDE903230094FEF7E1FFFEE7FFF7E2FE55
S31508002D700346ECE7603C0020E83C0020E03C0020ED
S31508002D80F05F00080C600008C45F000828600008AF
S31508002D90583C002070B48468124D6469C561124DB0
S31508002DA0817B124AB5F800C0114E0123203C0373FB
S31508002DB084618B4002EBC10443EA0C0336682B801E
S31508002DC063680022C0E9004342621860606036B159
S31508002DD0084A136813B19B7B8B4200D9106070BCFC
S31508002DE0704700BF99030008583C0020603C00204B
S31508002DF0E03C0020E83C002030B5037B90F80EE06C
S31508002E005FFA81FCDC0789B080F80EC029D5D0E9C5
S31508002E10003423605C60374B53F83E5003EBCE0416
S31508002E20AC422AD0344CB4F800C003EBC105E2B971
S31508002E306A68C0E9005210606860304A1568012265
S31508002E408A404CEA020CA4F800C065B12C4C2268F2
S31508002E5082423ED0927B8A4205D353F831302360B2
S31508002E6001E05A061BD409B030BD456053F831203D
S31508002E700260506043F83100DFE703EBCE056D686A
S31508002E80AC422CD01F48204B029002249A22694655
S31508002E900020CDE903230094FEF748FFFEE7036907
S31508002EA059688B681B68DB07DDD5D0E900321360EB
S31508002EB05A600B68994203D105E01B68994202D013
S31508002EC09A7B6245F9D95A68C0E9003210605860A1
S31508002ED0C9E78E45C7D8FFF72DFE2060C3E7064C25
S31508002EE00125B4F800C005FA0EF52CEA050CA4F87D
S31508002EF000C09AE7603C0020583C0020E03C0020D7
S31508002F00E83C0020F05F00080C600008036898425F
S31508002F1013D01A6882420FD0114902605060426885
S31508002F200968C3E900021360436029B10D4A1168B4
S31508002F30994204BF03681360704743689842FBD000
S31508002F4010B588B00848094B029002249A226946AF
S31508002F500020CDE903230094FEF7E8FEFEE700BF54
S31508002F60E03C0020E83C0020F05F00080C60000808
S31508002F7010B5037BD907044625D413F07C0F14D16A
S31508002F8063691BB1194B20461B689847E37BA06809
S31508002F90002123F01E032173027B627343F00803AA
S31508002FA0A273DA07E37311D410BD13F0600F03D0D0
S31508002FB0D0E9003213605A60236918680028DFD008
S31508002FC000F04AF9DCE7FFF77BFED9E761F3000377
S31508002FD0E3734369064861620122203B2273C4E910
S31508002FE006302046BDE81040FFF7D6BDF03C00206D
S31508002FF099030008000000009FED0B7B0C4B0D4960
S315080030000D4A0E4810B483ED007B0D4C00230B606F
S315080030100C4923600C4C04600B605DF8044B12608D
S31508003020704700BFAFF300800000000000000000FA
S31508003030003D0020103D00206C060020143D0020B5
S31508003040F83C0020083D0020003E14F470B4184CEB
S31508003050031B25689B1004EBC303AB4226D8154A0D
S315080030601668A1EB060C12E05D682D68AD1B95424B
S3150800307015D22A460B1B9B10944504EBC30315D99E
S315080030800A680260506025689D4208460ED31946B4
S3150800309051F8042B1268A942A2EB0602E4D9194694
S315080030A00B1B9B10944504EBC303E9D870BC70470F
S315080030B06C060020143D00200F4B10491B6870B4A5
S315080030C00F4C586A0B6822680E4D0860C31A991887
S315080030D021602C680C480D4EA21A08449A423060AA
S315080030E002D2A14202D3296070BC7047084A5368CD
S315080030F001335360F7E700BF103C00200C3D002069
S31508003100103D0020083D0020003E14F4143D002028
S31508003110003D0020174A1848134610B453F8044BCC
S3150800312001689C421BD35268144B154C1B681268E5
S315080031302468A2EB030CE31A9C4504D801235DF826
S31508003140044B4B6170470F4B121B9A4209D9002258
S315080031504A625DF8044BCB62C36001F0FBBF094BC2
S31508003160F5E700234B625DF8044BCA62C26001F0C2
S31508003170F1BF00BF6C060020D03B0020143D0020A4
S31508003180103D002002286BEE70B5124D03682C68BE
S31508003190AC4604344CF8044B644516D90E4A1668F6
S315080031A0A3EB060E03E0644511604A600DD9631B64
S315080031B0DB10224655F8231005EB83040B689B1B8E
S315080031C07345F0D81060426070BD224610604260B8
S315080031D070BD00BF6C060020143D0020F8B50646F9
S315080031E00F46FFF769FF184B184D1B682C682846D1
S315080031F003F1010C04340CEB0703336040F8044B6D
S3150800320084421BD9124A1768A3EB070C03E08442D1
S3150800321011604A6012D9631BDB10224655F8231049
S3150800322005EB83040B68DB1B6345F0D8094B166076
S315080032301B6872600BB9824202D0F8BD2246F5E7D8
S31508003240BDE8F840FFF766BF103D00206C06002079
S31508003250143D0020F83C0020F8B5214C4668226849
S315080032602546131F45F8043BAB4218D31368AE42F4
S3150800327019680DD91B4B1F68331BDB10A1EB070C14
S3150800328054F823000268D21B944504EB83030CD33D
S315080032903046FFF7DBFE23685B6803605860124B15
S315080032A01B680BB9AE4215D0F8BDAB42306046601C
S315080032B00ED91A1BD210184654F8221004EB8203B2
S315080032C00A68D21B9445E6D2AB4201604860F0D842
S315080032D01846E0E7FFF7F0FEBDE8F840FFF71ABF2B
S315080032E06C060020143D0020F83C00202DE9F04F24
S315080032F08BB0EFF3148515F0020301930DD0414806
S31508003300414B0490022440F2512202A90020CDE943
S3150800331005230294FEF70AFDFEE7DFF80481D8F8D4
S315080033200030002B57D1EFF31182102383F3128854
S31508003330364901230A60C8F80030BFF34F8FDFF81B
S31508003340E4A0DFF8E490324F324ECAF8003009F1B3
S315080033500404FFF7B1FED9F80000A04229D30022E1
S315080033600AE0DBE902309847D9F80000019B012200
S315080033701344A0420193ECD3D9F804B03B68DBF8B8
S3150800338000103568C91AEB1A9942A0F1040C0ED838
S31508003390A445C9F800C0E4D3036820461968FFF7B6
S315080033A055FED9F800305B6803605860D9E7002AF3
S315080033B0CFD1019BEBB1FFF7ADFE0023CAF8003071
S315080033C0C8F80030BFF34F8F104B1B6883F3118882
S315080033D00BB0BDE8F08F0B490F4B0491022440F265
S315080033E052220198029402A9CDE90523FEF79EFC14
S315080033F0FEE70A4B0493012202A905200292FEF772
S3150800340095FCD8E730600008506000084C3C002066
S31508003410143D0020103D0020606000087060000820
S31508003420503C0020F83C00206C06002070B52C4C5F
S315080034302568002D50D1002829D03EDD294B1B6870
S3150800344083423ADB284B013800EB800003EBC000CF
S31508003450EFF31183102282F31288244E336001237E
S315080034602360BFF34F8F037BC3B183681B6899073B
S3150800347002D4C37BDA0724D56FF02A05002323601C
S31508003480BFF34F8F336883F31188284670BDEFF377
S3150800349014839A0711D5164B1868D9E7FFF77AFCF3
S315080034A0134A144B106819688842E7D0EFF314835F
S315080034B09B070AD5FCF73CFFE0E76FF011052846A5
S315080034C070BD43F00103C373D8E74FF0E0234FF014
S315080034D08052C3F8042DD1E76FF01805D5E700BF71
S315080034E0503C002044670008E01600204C3C0020B1
S315080034F0EC3C0020E83C0020EFF314839B0722D520
S315080035001A4A1368FBB9002820D1194B196810B458
S31508003510EFF31180102383F31288164C01232060E1
S315080035201360BFF34F8FCB7B03F0010023F0010339
S31508003530CB7300231360BFF34F8F236883F311887F
S315080035405DF8044B70476FF0180070470ADD0A4BA8
S315080035501B68834206DB0949013800EB800001EB52
S31508003560C001D4E76FF01100704700BF503C00203F
S31508003570EC3C00204C3C002044670008E016002084
S315080035802DE9F041EFF314839C072FD5324F3D68A0
S3150800359065BB00282FD1314B1E68002938D1B36886
S315080035A0DC68EFF31183102282F31288DFF8C080FB
S315080035B0C8F8003001233B60BFF34F8F337B6BB3F2
S315080035C0F27BD20637D423F00203502B33D0747320
S315080035D0214630460022FFF70FFC204A204B106890
S315080035E0196888421CD0FCF7A3FE19E06FF018058D
S315080035F02846BDE8F0812CDD1A4B1B68834228DB80
S31508003600194E013800EB800006EBC0060029C6D02B
S315080036104C1E0F2CC5D96FF01005E9E76FF0280589
S3150800362000233B60BFF34F8FD8F8003083F311882F
S315080036302846BDE8F0810D4B21461B683046984761
S3150800364020B1F37B7473DB06EAD4C1E76FF01B0580
S31508003650E6E76FF01105CBE7503C0020EC3C002074
S31508003660E83C002044670008E0160020F43C0020EF
S315080036704C3C0020EFF31482930721D51B4A0346DE
S315080036801068E8B9002B30B41DD1194B1B68EFF34D
S315080036901185102484F31288164C256001251560BF
S315080036A0BFF34F8F1D7BD5B19B7B01330B60002386
S315080036B01360BFF34F8F236883F3118830BC7047BC
S315080036C06FF0180070470DDD0B4C24689C4209DB2F
S315080036D00A4C013B03EB830304EBC303D7E76FF004
S315080036E02800E4E76FF01100E8E700BF503C00202F
S315080036F0EC3C00204C3C002044670008E016002003
S3150800370070B582B0EFF31483980719D51C4D2C6851
S31508003710B4B91C4B1B689BB1102383F311881A4A52
S31508003720012314602B60BFF34F8F184E3068C37B9C
S3150800373059070AD49A0713D564F34103C37306E0FD
S315080037406FF01804204602B070BD6FF034040023F1
S315080037502B60BFF34F8F83F31188204602B070BDEC
S3150800376004230373FFF7ACFA3068019401AB0361D5
S31508003770074B32461968FCF7DBFD019CE7E700BFFB
S31508003780503C0020E03C00204C3C0020EC3C002053
S31508003790E83C0020EFF31482930723D530B5234C79
S315080037A00346206887B070BB214A12685AB3214A7B
S315080037B021491A448A4236D9102282F311881F49B0
S315080037C0012208602260BFF34F8F1D4D2968CA7B0E
S315080037D012F0040F09D112F0020F10D1B3B96FF02D
S315080037E0310004E06FF0180070476FF034000023D2
S315080037F02360BFF34F8F83F3118807B030BD60F3A2
S315080038004102CA73F3E76FF01800F6E702AA01A9A6
S31508003810042001F0ADFD0B4B286819682A46FCF711
S3150800382087FD0198E3E76FF01000E6E7503C0020BB
S31508003830E03C0020FFD79411FDD794114C3C0020A2
S31508003840EC3C0020E83C002070B52D4C2568002D86
S3150800385053D1002822D033DD2A4B1B6883422FDB45
S31508003860294B013800EB800003EBC000EFF311830E
S31508003870102282F31288254E336001232360BFF39A
S315080038804F8F037B8BB123F00203042B1FD0C37B1E
S315080038909A0719D443F00203C37308E0EFF31483BD
S315080038A09A070DD51A4B1868E0E76FF0280500232C
S315080038B02360BFF34F8F336883F31188284670BDA2
S315080038C06FF01105284670BD6FF02A05EFE701F085
S315080038D087FD0F4A0F4B106819688842E7D0EFF347
S315080038E014839B0702D5FCF723FDE0E74FF0E0239E
S315080038F04FF08052C3F8042DD9E76FF01805DDE7BD
S31508003900503C002044670008E01600204C3C00208C
S31508003910EC3C0020E83C0020EFF314839B0724D5F9
S315080039201C4B1A680ABB002822D11B4A126810B41D
S31508003930EFF31180102181F31288184C01212060C1
S315080039401960BFF34F8F117BF1B1D17BC1F34000F2
S3150800395021F00201D17300221A60BFF34F8F23684A
S3150800396083F311885DF8044B70476FF018007047B1
S315080039700DDD0B4A1268824209DB0A4A013800EB60
S31508003980800002EBC002D2E76FF02800E3E76FF091
S3150800399011007047503C0020EC3C00204C3C0020B5
S315080039A044670008E01600202DE9F0473E4E3768C8
S315080039B088B0002F75D1002870DD3C4B1B68834208
S315080039C06CDB441EEFF31183102282F31288DFF8B2
S315080039D0F490C9F8003001233360BFF34F8F344D9C
S315080039E004EB840305EBC3084FEA840A98F80C2015
S315080039F012F07C0F4FEAC30329D012F0600F04D0EF
S31508003A00EB58D8F8042013605A60D8F810301868B4
S31508003A1008B1FFF721FCA24405EBCA056FF0300296
S31508003A202B691A602B7B13F07C0025D09A072FD5BB
S31508003A3002232B731F4A204B10681968884208D046
S31508003A40EFF314839B0710D5FCF772FC01E06FF0C7
S31508003A50280700233360BFF34F8FD9F8003083F36C
S31508003A601188384608B0BDE8F0874FF0E0234FF0DC
S31508003A708052C3F8042DECE71049114B0291022439
S31508003A8071226946CDE903230094FEF74FF9FEE754
S31508003A90012340462B73FFF77FF8CBE76FF011073A
S31508003AA0DFE76FF01807DCE7503C002044670008A2
S31508003AB0E0160020EC3C0020E83C0020A06000084E
S31508003AC0BC6000084C3C0020F8B5EFF31483990756
S31508003AD020D52D4D2C68ECB900281FD12B4F3868FE
S31508003AE0EFF31183102282F31288294E33600123E3
S31508003AF02B60BFF34F8F3B6883422AD0037BD3B139
S31508003B00C27B520722D4D9072ED49A0728D56FF03C
S31508003B102A0412E06FF018042046F8BD31DD1D4B6B
S31508003B201B6883422DDB1C4B184F013800EB8000C5
S31508003B3003EBC000D4E76FF0280400232B60BFF323
S31508003B404F8F336883F311882046F8BD6FF034042D
S31508003B50F3E7124B1B68002BD0D16FF01804ECE783
S31508003B6043F002030373E8E702230373FFF7A8F899
S31508003B700B4B386819688842DFD0044AFCF7D8FB33
S31508003B80DBE76FF01104C7E7503C0020EC3C00204F
S31508003B904C3C002044670008E0160020E03C00206A
S31508003BA0E83C002070B5EFF314839C0723D5214D1C
S31508003BB02C6804BB002839DD1F4B1B68834235DBA4
S31508003BC00138EFF31183102282F312881B4E01226B
S31508003BD033602A60BFF34F8F194B00EB800003EB6D
S31508003BE0C000037B99070AD513F07C0F12D023F087
S31508003BF00203037305E06FF01804204670BD6FF0EA
S31508003C00280400232B60BFF34F8F336883F3118892
S31508003C10204670BD0273FEF7BFFF0A4A0A4B1068BA
S31508003C2019688842EDD0FCF783FBEAE76FF01104C8
S31508003C30E3E700BF503C0020446700084C3C0020E6
S31508003C40E0160020EC3C0020E83C0020EFF314834B
S31508003C509A0725D570B5224D2B6886B0002B39D129
S31508003C60204A1268002A35D01F4A9042044634D8A2
S31508003C70102282F311881D4901220B602A60BFF3C6
S31508003C804F8F1B4E3068C37B5B070CD56FF0340033
S31508003C9000232B60BFF34F8F83F3118806B070BDE6
S31508003CA06FF01800704708230373FFF709F83368A5
S31508003CB0059301AA1A6102A80E4B019021460493A6
S31508003CC0FFF78CFA0C4B306819683246FCF730FB64
S31508003CD00198DDE76FF01800E0E76FF01000DDE708
S31508003CE0503C0020E03C002000286BEE4C3C0020B5
S31508003CF0EC3C00203D540008E83C002008B5EFF3F2
S31508003D0014839B0719D5194B1A68CAB1184B1A6838
S31508003D106AB9184A116809B90121116016490A6871
S31508003D20F2B901221A60FEF705FF144B1860144B0E
S31508003D301868FFF71DF9FCF7F2FA6FF0180008BDCE
S31508003D40EFF31180102282F312880B4901220860D2
S31508003D501A60BFF34F8F064B1A68002AE7D1D8E7D7
S31508003D601209102A1CBF00220A60DAE7503C00201C
S31508003D70E03C0020E43C00204C3C0020E83C0020CD
S31508003D80EC3C00202DE9F047EFF314839C075CD543
S31508003D90404F3D68002D58D1002875DD3E4B1B6805
S31508003DA0834271DBDFF8FC903C49441E04EB840334
S31508003DB0D9F8000001EBC306B0424FEA840A4FEA7D
S31508003DC0C30364D0EFF31182102080F31288DFF862
S31508003DD0D880C8F8002001223A60BFF34F8F327BA3
S31508003DE0002A37D0F07B000741D4F07B40F004006E
S31508003DF0F073D00730D412F07C0F14D012F0600F95
S31508003E0003D0CB58726813605A603369186810B1CA
S31508003E10FFF722FA21490AEB040301EBC3036FF00B
S31508003E2034021B691A60A24401EBCA0101230B7311
S31508003E303046FEF7B1FE1A4BD9F8000019688842D9
S31508003E400AD0184AFCF774FA06E06FF018052846F7
S31508003E50BDE8F0876FF0280500233B60BFF34F8F5E
S31508003E60D8F8003083F311882846BDE8F087304635
S31508003E70FFF77EF80A4BD9F8000019688842EBD09C
S31508003E804A46FCF755FAE7E76FF01105DFE76FF0EA
S31508003E901B05DCE7503C002044670008E0160020BC
S31508003EA0E83C0020EC3C00204C3C0020EFF3148357
S31508003EB09B071FD5114B1868E0B910B4EFF31184AE
S31508003EC0102282F312880E4A012114601960BFF38A
S31508003ED04F8F0C49096891F80FC060F3C30C81F83D
S31508003EE00FC01860BFF34F8F136883F311885DF80E
S31508003EF0044B70476FF01800704700BF503C002015
S31508003F004C3C0020EC3C0020EFF31483980722D5A4
S31508003F10154B1868F8B910B5EFF31181102282F322
S31508003F201288124C012221601A60BFF34F8F104A83
S31508003F301268D17B490702D50E49096871B9D17B48
S31508003F4041F00801D17300221A60BFF34F8F23682E
S31508003F5083F3118810BD6FF0180070471046FFF7FD
S31508003F6007F8FCF7DCF900BF503C00204C3C002069
S31508003F70EC3C0020E03C0020F8B5EFF314839B07E7
S31508003F802AD5204D2C683CBB002834DD1E4B1B6807
S31508003F90834230DB1D4B1E4F013800EB800003EBDC
S31508003FA0C0003B68834229D0EFF31183102282F3C5
S31508003FB01288184E336001232B60BFF34F8F037BA3
S31508003FC073B96FF0280400232B60BFF34F8F336853
S31508003FD083F311882046F8BD6FF018042046F8BD13
S31508003FE0FEF7C6FF0C4B386819688842EBD03A468C
S31508003FF0FCF79EF9E7E76FF01104EFE76FF01B0493
S31508004000ECE700BF503C002044670008E01600209B
S31508004010EC3C00204C3C0020E83C0020084B18688B
S3150800402068B1084B084A03EB001051689A60D960DA
S31508004030C3E900331033834202F10C02F5D170470D
S3150800404098660008C016002080660008F0B5304C57
S31508004050256889B0002D58D1002853DD2D4B1B68E3
S3150800406083424FDB0138EFF31183102282F3128863
S31508004070294E336001232360BFF34F8F274A01017E
S3150800408002EB0013505883421AD0076857507B60DA
S3150800409001F0A6F9224A234B10681968884205D010
S315080040A0EFF314839B071BD5FCF742F90023236023
S315080040B0BFF34F8F336883F31188284609B0F0BDE4
S315080040C05A68934213D01849184B029102249A222F
S315080040D028466946CDE903230094FDF727FEFEE747
S315080040E04FF0E0234FF08052C3F8042DDEE7D3E902
S315080040F0021289688A4202D20132DA60D6E76FF084
S315080041002A05D3E76FF01105D7E76FF01805D4E74E
S31508004110503C0020986600084C3C0020C016002041
S31508004120EC3C0020E83C0020F05F00080C6000082A
S31508004130EFF31482910727D530B5234C0346206840
S3150800414083B000283AD1214A1268002A36D0002BBB
S3150800415037DD1F4A12689A4233DB102282F3118830
S315080041601C49012208602260BFF34F8F1A4D2A6846
S31508004170D27B52070BD4194A013B02EB0313DA68C8
S315080041807AB1013ADA6004E06FF0180070476FF010
S31508004190340000232360BFF34F8F83F3118803B0E5
S315080041A030BD18466A46402101F096F90C4B28683E
S315080041B019682A46FCF7BCF80098EAE76FF0180079
S315080041C0EDE76FF01100EAE7503C0020E03C0020E4
S315080041D0986600084C3C0020EC3C0020C0160020E5
S315080041E0E83C0020F8B5EFF314839B072ED51B4E49
S315080041F035685DBB00282DDD194B1B68834229DB1A
S315080042000138EFF31183102282F31288154F3B60B1
S3150800421001233360BFF34F8F134C04EB0014204681
S3150800422001F086F9A368114A5B68E360104B1068D1
S315080042301968884201D0FCF77BF800233360BFF386
S315080042404F8F3B6883F311882846F8BD6FF0180531
S315080042502846F8BD6FF01105FAE700BF503C00206C
S31508004260986600084C3C0020C0160020EC3C002054
S31508004270E83C0020F8B5EFF314839B0722D5134ECC
S315080042803468FCB90546EFF31183102282F31288CD
S315080042900F4F3B6001233360BFF34F8FFEF70CFFD0
S315080042A00C4A0D4B1968136852685B1842F10002F4
S315080042B02B606A603460BFF34F8F3B6883F31188C5
S315080042C02046F8BD6FF018042046F8BD503C002083
S315080042D04C3C0020003D0020083D0020EFF31083F1
S315080042E072B6012B034B1B68586A01D062B6704739
S315080042F0704700BF103C002002688368D2681344E8
S3150800430070B5044640F8083FFEF73EFF0C4D002303
S315080043102B60BFF34F8F0B4E336883F311882368E6
S31508004320D3E9010290472B684BB9EFF311821023AA
S3150800433083F31288012332602B60BFF34F8F70BD61
S31508004340503C00204C3C00202DE9F843154B1F68D3
S315080043502FB3154D154CDFF8589000264FF001087D
S3150800436007E00136BE42636005F1140504F118043E
S3150800437015D02B68256013F00203C4E90494F0D025
S3150800438020462B69C4F80480013640F8083FFEF73A
S31508004390FBFEBE4205F1140504F11804E9D1BDE897
S315080043A0F88300BF7C66000868660008A816002027
S315080043B0F94200082DE9F047EFF314839B0737D538
S315080043C0214F3E68A6BB00283BDD204B1B68834275
S315080043D037DB451EEFF31183102282F31288DFF8CC
S315080043E070A00121CAF800303960BFF34F8FDFF89B
S315080043F0648005EB4503DB0008EB0302083308EB92
S315080044000304536805FA01F9BBB95160A94420466B
S3150800441058F839301969FEF7E1FE00233B60BFF30F
S315080044204F8FDAF8003083F311883046BDE8F087FD
S315080044306FF018063046BDE8F0872046FEF70CFFF9
S31508004440E4E76FF01106F5E7503C00207C660008AB
S315080044504C3C0020A816002070B5EFF314839B0788
S3150800446025D5194D2C6814BB00282ADD174B1B6867
S31508004470834226DB0138EFF31183102282F3128878
S31508004480134E336001232B60BFF34F8F114B00EBA4
S31508004490400003EBC002C000516861B900232B60DD
S315080044A0BFF34F8F336883F31188204670BD6FF0D2
S315080044B01804204670BD083054601844FEF7CCFE38
S315080044C0ECE76FF01104F4E7503C00207C66000826
S315080044D04C3C0020A816002038B5002343600C4C3D
S315080044E02360BFF34F8F0B4D2B6883F31188036846
S315080044F0D3E90102904723684BB9EFF311821023E1
S3150800450083F3128801232A602360BFF34F8F38BDD7
S31508004510503C00204C3C00200C4B1968A1B10C4BB8
S315080045200C4A10B401EB41010B4C03EBC10100200E
S31508004530C3E90020C3E9044318338B4202F10C0295
S31508004540F6D15DF8044B7047704700BF64660008F3
S315080045509016002058660008D94400082DE9F04155
S31508004560214E3768002F38D1002833DD1F4B1B68D2
S3150800457083422FDB1E4B99420C4631D80138EFF3A4
S315080045801183102282F31288DFF86C800121C8F8A3
S3150800459000303160BFF34F8F164A00EB4000C3006E
S315080045A003F10805134415445A687AB95960214637
S315080045B02846FEF713FE00233360BFF34F8FD8F863
S315080045C0003083F311883846BDE8F0812846FEF7A7
S315080045D043FEECE76FF01107F5E76FF01807F2E70F
S315080045E06FF01007EFE700BF503C00206466000834
S315080045F000286BEE901600204C3C002070B5194C34
S3150800460025685DBB002826DD174B1B68834222DB25
S315080046100138EFF31183102282F31288134E3360A8
S3150800462001232360BFF34F8F114B00EB400003EBD0
S31508004630C002C000516841B900232360BFF34F8F01
S31508004640336883F31188284670BD083055601844CE
S31508004650FEF702FEF0E76FF01105F4E76FF01805B4
S31508004660F1E700BF503C0020646600084C3C00207F
S3150800467090160020F8B5224C2568002D3CD158B379
S3150800468001380F2834D81F4FEFF31183102282F315
S3150800469012881D4E336001232360BFF34F8F1B4BD7
S315080046A003EBC000FEF732FC194B386819688842DC
S315080046B009D0EFF314839B0716D44FF0E0234FF08D
S315080046C08052C3F8042D00232360BFF34F8F33684D
S315080046D083F311882846F8BDEFF314839A0707D5A4
S315080046E0084F3B68587BCFE7064AFBF721FEEAE707
S315080046F06FF010052846F8BD6FF01805EAE700BF09
S31508004700503C0020EC3C00204C3C0020603C002043
S31508004710E83C00200C4B196899B90C4B1B680246FB
S3150800472063B110B40A4C0B481B1BDB1000FB03F3E8
S31508004730013308465DF8044B13607047116008465C
S3150800474070476FF01801FAE7503C0020EC3C002057
S31508004750E0160020CDCCCCCC074B1A6852B9EFF343
S315080047601180102282F312880449012208601A6017
S31508004770BFF34F8F00207047503C00204C3C002070
S31508004780064B1A683AB100221A60BFF34F8F044BE2
S315080047901B6883F311880020704700BF503C002037
S315080047A04C3C0020EFF314839B071BD50F4B18686E
S315080047B0C0B910B4EFF31184102282F312880C4AA0
S315080047C0012114601960BFF34F8F0A4C0A49206013
S315080047D008601860BFF34F8F136883F311885DF87C
S315080047E0044B70476FF01800704700BF503C00201C
S315080047F04C3C0020E43C0020E03C002070B5EFF380
S3150800480014839B071DD51D4D2C68D4B9EFF311826F
S31508004810102383F312881A4E012332602B60BFF3EC
S315080048204F8F184A136033687BB11B09102B0CD0C5
S3150800483000232B60BFF34F8F336883F3118820461C
S3150800484070BD6FF01804204670BD0F4B01221A6028
S31508004850FEF770F90D4B0E4A186001461068C37BC7
S3150800486003F00C030C2B04D08842E1D0FBF760FD63
S31508004870DEE7FEF77DFBFBF752FD00BF503C00204C
S315080048804C3C0020E43C0020E03C0020E83C0020B2
S31508004890EC3C0020EFF3148080F00200C0F34000E7
S315080048A0704700BF024B1868003818BF01207047D0
S315080048B0503C0020024B1868B0FA80F04009704757
S315080048C0E43C0020EFF314839B0702D5054B1B68D5
S315080048D00BB101207047044B1868B0FA80F0400904
S315080048E0704700BF503C0020E03C0020074B70B5E5
S315080048F01E6856B1064C0025D4E90112013554F854
S315080049000C0BFEF721F8B542F6D170BD54660008C7
S315080049103C660008A0F10F03552B4ED8284970B401
S315080049200C6800F01F0301224FEA501C02FA03F339
S31508004930DCB1244A52F82C2013423AD00F282CD046
S3150800494010384509204A00F01F000123834042F829
S31508004950253044BB1D4D002000230B60BFF34F8F4D
S315080049602B6883F3118870BC7047EFF31186102506
S3150800497085F31288154D2E600A60BFF34F8F114AD2
S3150800498052F82C20134211D00F28D9D14FF0E0222B
S31508004990136923F002031361DDE74FF0E022136980
S315080049A023F002031361002070BC70476FF02800E3
S315080049B0D2E76FF0280070BC70476FF010007047A0
S315080049C0503C00204C64000880E100E04C3C00208C
S315080049D0A0F10F03552B51D82A4970B40C6800F082
S315080049E01F0301224FEA501C02FA03F3F4B1264AC8
S315080049F052F82C2013423DD00F282FD010384309E7
S31508004A009B0003F1604303F5614300F01F00012298
S31508004A1082401A6044BB1D4D002000230B60BFF383
S31508004A204F8F2B6883F3118870BC7047EFF311869C
S31508004A30102585F31288154D2E600A60BFF34F8F37
S31508004A40114A52F82C20134211D00F28D6D14FF014
S31508004A50E022136943F002031361DDE74FF0E02219
S31508004A60136943F002031361002070BC70476FF0AE
S31508004A702800D2E76FF0280070BC70476FF010006E
S31508004A80704700BF503C00204C6400084C3C002096
S31508004A90074B70B51D6855B1064E05EB4505002454
S31508004AA056F824000334FDF79FFEAC42F8D170BDDA
S31508004AB0386600082C6600080A4B1B681BB1036899
S31508004AC0C3F308030BB10120704743685B07FAD5A7
S31508004AD0054B1B68002BF6D0044B1868B0FA80F01B
S31508004AE040097047543C0020E43C0020EC3C002080
S31508004AF008B500F093F8024A024B12681A6008BD1E
S31508004B00286600080000002008B5FDF711FFFEE73B
S31508004B1000B5002083B000F0A3F800240194019B9F
S31508004B20B3F5801F06DA019B01330193019BB3F5A8
S31508004B30801FF8DB002000F0BBF8EFE710B588B05F
S31508004B40FDF77EFE284B1A6842F400721A601A684E
S31508004B5042F480621A601A6842F480721A6000F0A1
S31508004B60AFF8002000F07CF8204B1A6B42F00102E7
S31508004B701A631A6B02F001020192019A1A6C42F446
S31508004B8000321A641B6C03F40033022002930421DA
S31508004B900123CDE9040307240391069003A91448C9
S31508004BA0029A079400F0D8F808231148039303A93A
S31508004BB0079400F0D1F80F480F494FF4E132C0E9E5
S31508004BC0001200234FF480544FF4C0610C22C0E950
S31508004BD00243C0E90412C0E9063300F089FA08B9AD
S31508004BE008B010BDFFF794FF003C024000380240B1
S31508004BF000000240183D0020004400400020704795
S31508004C00034A044B1068A3FB00308009704700BFB5
S31508004C100C3D0020D34D6210704700BF0D4B0E4867
S31508004C201A68002142F0010210B41A6099601A68E5
S31508004C300A4C22F0847222F480321A605C601A6888
S31508004C405DF8044B22F480221A604FF00062D960A6
S31508004C50826070470038024000ED00E01030002402
S31508004C6030B5044689B048B90F4B1A6B42F00102B9
S31508004C701A631B6B03F001030193019B0B4D202262
S31508004C800123CDE9022355F82400022302A90122B3
S31508004C90CDE9042300F060F855F82400002220210D
S31508004CA000F04CF909B030BD00380240040000207D
S31508004CB0024B202153F8200000F044B904000020DC
S31508004CC0234B244A196C30B541F0805119641B6C8A
S31508004CD095B003F080530193019B136823F4404376
S31508004CE043F40043136013689FED177B022003F417
S31508004CF04043102102930124089000224FF4A87320
S31508004D000E9008A8CDE90B418DED127BCDE90F2158
S31508004D10029D1193FDF78AF978B90F200221002325
S31508004D20CDE903014FF4805203A8CDE90532079374
S31508004D30FDF71EFB20B915B030BDFFF7E9FEECE71D
S31508004D40FFF7E6FE15B030BD0400000007000000BE
S31508004D5000380240007000402DE9F04F85B00C681D
S31508004D60DFF8CCB10094002303E00133102B00F0E8
S31508004D708F80012202FA03F5009A05EA020E35EA47
S31508004D800202F2D14A688E685F00032422F01008F6
S31508004D9006FA07FA02EA040C04FA07F6B8F1020F53
S31508004DA06FEA06060CFA07FC75D0D0F8009008F1F1
S31508004DB0FF3809EA060949EA0C0CB8F1010FC0F8F0
S31508004DC000C040F28880C568354045EA0A05C560D6
S31508004DD0D500CAD5534E756C45F480457564756C17
S31508004DE005F480450395039D23F0030505F18045E9
S31508004DF003F003070F2405F59C35BF0004FA07FCEA
S31508004E00494CAE68A04226EA0C0615D004F5806423
S31508004E10A04277D0454CA04279D0DFF818C160454A
S31508004E207BD0DFF814C160450CBF4FF0040C4FF07F
S31508004E30050C0CFA07F73E43AE60DBF800506FEA44
S31508004E400E06D40354BF35404EEA0505CBF800508C
S31508004E50DBF80450970354BF35404EEA0505CBF8F6
S31508004E600450DBF80850D40254BF35404EEA050515
S31508004E70CBF80850DBF80C50920203F1010354BF3B
S31508004E8035404EEA0505102BCBF80C507FF471AF70
S31508004E9005B0BDE8F08F23FA04F803F0070E0C6995
S31508004EA000EB88084FEA8E0E04FA0EF4D8F8209024
S31508004EB001940F2404FA0EFE019C29EA0E0944EA1D
S31508004EC0090EC8F820E0D0F800E00EEA060E4EEA11
S31508004ED00C0CC0F800C0D0F808C0CC680CEA060C68
S31508004EE004FA07F747EA0C078760476812099A40E9
S31508004EF027EA05052A434260C268324042EA0A02A6
S31508004F00C26032E7012404FA07F73E4394E74FF0FC
S31508004F10020C0CFA07F73E438EE7032404FA07F758
S31508004F203E4389E70038024000000240000802407C
S31508004F30003C0140000C02400010024002B909047E
S31508004F408161704743695940416170470268116938
S31508004F50F8B50446C068A368256921F440510143A1
S31508004F601161D168E0692B43656921F416412B4329
S31508004F7021F00C0103430B43D3605369A16923F461
S31508004F8040730B43B0F5004F5361564B54D09A42C9
S31508004F9036D003F580639A4232D0FDF727FB636863
S31508004FA0514E00EB80009B0000EB8000B0FBF3F550
S31508004FB0FDF71CFBA6FB053563686D0900EB800051
S31508004FC000EB80009B002D01B0FBF3F7FDF70EFB0D
S31508004FD0D4E9002300EB80009B0000EB8000B0FBC7
S31508004FE0F3F0A6FB00304009642303FB10731B0192
S31508004FF03233A6FB0363C3F343132B439360F8BD15
S31508005000FDF71AFB6368384E00EB80009B0000EB47
S315080050108000B0FBF3F5FDF70FFBA6FB05356368CB
S315080050206D0900EB80009B002D0100EB8000B0FBB2
S31508005030F3F7FDF701FBCBE79A4236D003F5806319
S315080050409A4232D0FDF7D2FA6368274E00EB800009
S315080050505B0000EB8005B5FBF3F5FDF7C7FAA6FB89
S31508005060053563686D0900EB800000EB80005B0086
S315080050702D01B0FBF3F7FDF7B9FAD4E9001300EBFD
S3150800508080005B0000EB8000B0FBF3F2A6FB023267
S315080050905209642303FB12731B013233A6FB036315
S315080050A0C3F343132B438B60F8BDFDF7C5FA63685A
S315080050B00D4E00EB80005B0000EB8000B0FBF3F5C3
S315080050C0FDF7BAFAA6FB053563686D0900EB8000A3
S315080050D05B002D0100EB8000B0FBF3F7FDF7ACFA9F
S315080050E0CBE700BF001001401F85EB51704700BF9A
S315080050F058B310B590F83930044603F0FF02FBB1F7
S315080051002268022384F83930D36823F400532046F2
S31508005110D360FFF71BFF23681A6922F490421A61CD
S315080051205A6922F02A025A61DA6800214FF0010C06
S3150800513042F40052DA60E16384F839C0084610BDCB
S3150800514080F83820FFF7D2FFDAE70120704700BF62
S31508005150704700BF0168022280F839200A680346B2
S315080051604FF0010C42EA0C020A60002083F839C0AD
S31508005170704700BF0222036880F83920196A41F295
S315080051801112114208D1196A40F24442114203D160
S315080051901A6822F001021A60012380F839300020CB
S315080051A0704700BF704700BF30B4224D8C68036853
S315080051B00A68A8422CD0B0F1804F1AD0A5F57C45D4
S315080051C0A84216D005F58065A84212D005F5806577
S315080051D0A8420ED0184DA8420FD005F58065A84202
S315080051E00BD005F58065A84207D00360C4628262C9
S315080051F00AE04D6823F070032B43C96823F4407313
S315080052000B430360C4628262012330BC436170476A
S315080052104D6823F070032B43CD6823F440732B436A
S315080052200360C46282620B690363012330BC436175
S31508005230704700BF0000014000400140C0B110B5F2
S3150800524090F83930044603F0FF0263B12146022381
S3150800525084F8393051F8040BFFF7A6FF012384F8C8
S315080052603930002010BD80F83820FFF771FFEDE7D0
S315080052700120704710B338B590F839300D4604460A
S3150800528003F0FF02ABB12146022384F8393051F806
S31508005290040BFFF789FF036823F00803036003681C
S315080052A04FF0010C2B430360002284F839C01046E6
S315080052B038BD80F83820FFF775FFE4E7012210466D
S315080052C0704700BF30B5037B13F0600F89B003D079
S315080052D0D0E900210A60516002696FF0310111605E
S315080052E013F07C022AD09B0723D5022303731A4A9C
S315080052F01A4B12681B689A4205D04FF0E0234FF00C
S315080053008052C3F8042D164B00221A60BFF34F8F44
S31508005310144A116881F3118800BFEFF31180102138
S3150800532081F31288012110601960BFF34F8F09B00D
S3150800533030BD01230373FDF72FFCD8E70A490B4B51
S3150800534002910225712410466946CDE9034300956A
S31508005350FCF7ECFCFEE700BFEC3C0020E83C002034
S31508005360503C00204C3C0020A0600008BC600008AF
S31508005370F0B5164F1C463B6889B0187318460D469B
S315080053801646FDF79DFC3B68621C1D611AD0104A43
S3150800539094420CD90F48104B0290022441226946C8
S315080053A00020CDE903230094FCF7C0FCFEE70B4A76
S315080053B02E6021463046C6E9022309B0BDE8F04012
S315080053C0FDF70CBF00232B6009B0F0BDEC3C0020B4
S315080053D000286BEED8600008F4600008C552000883
S315080053E010B503690446186888B010B1FDF734FF94
S315080053F0236900221A60237B13F07C000DD09B07DB
S3150800540003D50223237308B010BD01232046237356
S3150800541008B0BDE81040FDF7BFBB0649064B029130
S31508005420022471226946CDE903230094FCF77EFC29
S31508005430FEE700BFA0600008BC60000830B502693E
S3150800544000211160027B12F07C0189B02AD09207F4
S3150800545023D5022202731A4A1A4B12681B689A420B
S3150800546005D04FF0E0234FF08052C3F8042D164BB9
S3150800547000221A60BFF34F8F144A116881F311880E
S3150800548000BFEFF31180102181F31288012110600B
S315080054901960BFF34F8F09B030BD01220273FDF7C3
S315080054A07BFBD8E70A4B0B4C02940225712208466F
S315080054B06946CDE903230095FCF738FCFEE700BFF3
S315080054C0EC3C0020E83C0020503C00204C3C0020EE
S315080054D0BC600008A060000870B5144E3368044626
S315080054E0197318461546FDF7EBFBA36831681B6868
S315080054F00D610022DB072A6006D46368C1E9004310
S31508005500196061606C6070BD2368887B9C4203D11A
