S00B00006173702E73726563D5
S315080000006816002095010008E9010008E9010008C2
S31508000010E9010008E9010008E9010008E90100080A
S31508000020000000000000000000000000D9020008DF
S31508000030E90100080000000027020008651A000808
S31508000040651A0008651A0008651A0008651A000886
S31508000050651A0008651A0008651A0008651A000876
S31508000060651A0008651A0008651A0008651A000866
S31508000070651A0008651A0008651A0008651A000856
S31508000080651A0008651A0008651A0008651A000846
S31508000090651A0008651A0008651A0008651A000836
S315080000A0651A0008651A0008651A0008651A000826
S315080000B0651A0008651A0008651A0008651A000816
S315080000C0651A0008651A0008651A0008651A000806
S315080000D0651A0008651A0008651A0008651A0008F6
S315080000E0651A0008651A0008651A0008651A0008E6
S315080000F0651A0008651A0008651A0008651A0008D6
S31508000100651A0008651A0008651A0008651A0008C5
S31508000110651A0008651A0008651A0008651A0008B5
S31508000120651A0008651A0008651A0008651A0008A5
S31508000130651A0008651A0008651A0008651A000895
S31508000140651A0008651A0008651A0008651A000885
S31508000150651A0008651A0008651A0008651A000875
S31508000160651A0008651A0008651A0008651A000865
S31508000170651A0008651A0008651A0008651A000855
S31508000180651A0008651A0008651A0008651A000845
S31508000190651A000871B602F00DFB00200D490E4ADB
S315080001A0914203D2086004319142FBD30B490C4AB1
S315080001B0914206D20B4B0868186004310433914209
S315080001C0F9D300F005F801F093FCFEE7704700BF8D
S315080001D07047000008000020583800203C38000806
S315080001E04438000800000020EFF31181EFF3108275
S315080001F051EA02211EF0040F05D0EFF3098020E929
S31508000200024002B501E002B56846744A13680CB4A8
S31508000210EFF30583724951F8232090470FBC01601C
S3150800022082F311881847102080F311886D490868F1
S3150800023058B1EFF309821EF0100F01D122ED108A92
S3150800024022E9F00F8261C0F81CE067480068086080
S31508000250A0B1C16911F07F42B2F17F4F1AD182690C
S31508000260B2E8F00F11F0100F01D1B2EC108A82F348
S315080002700988002071B680F311880847EFF30980D2
S315080002805A495FF0807220E90600183880F3098819
S31508000290DFF840F0426A4AB1554A5FF080738069D8
S315080002A0B0E8F00F20E90E00143807E08069B0E8DE
S315080002B0F00F5FF0807220E90600183880F309888D
S315080002C0464801210160BFF34F8FDFF808F0BDEC07
S315080002D0108A7047FDFFFFFF40480021016000209B
S315080002E080F31188A0692900B0E8F00F11F0100F0B
S315080002F001D1B0EC108A80F3098808473D480168A7
S3150800030081F30888022080F31488BFF36F8F3A4977
S31508000310D1F814D034490968324A61B61BE0022381
S3150800032083F31488BFF36F8F2F4909682D4A12E0AB
S31508000330EFF3148313F0040306D02DED108A02237D
S3150800034083F31488BFF36F8F43622DE9F00FC0F86B
S315080003501CE0C0F818D0116089B1CA6912F07F4054
S31508000360B0F17F4F02D10C00150000DFD1F818D08C
S31508000370BDE8F00F4B6A0BB1BDEC108A1047174861
S3150800038000210160BFF34F8F002080F31188BFF36F
S315080003904F8F30BFFBE700BF104800210160BFF355
S315080003A04F8F002080F311880E4801688A685068CC
S315080003B0DFF848E0D2F808F0002181F31488BFF38B
S315080003C06F8F01F0C3BB00BFA0F15E00002800DC00
S315080003D07047A0F137000028FBDC7047583700202B
S315080003E0D0350008F4370020F03700207E030008D7
S315080003F0CE0200088C370008D8370008F12200081A
S315080004000EB400B58AB00CAA02A80649019200F0FB
S3150800041053F902A9052000F0C3FC0AB05DF804EB05
S3150800042003B07047DC30000808B5054D054C294671
S315080004300520FFF7E5FF204601F002FFF7E700BFBA
S31508000440DC30000840420F002DE9F04F85B00DF171
S315080004500408DDE90FB6DDF838901F464546002446
S3150800046001E08C450CD3B0FBF1F301FB130C01340E
S3150800047012F80CC005F801CB0B2C84461846F0D1AF
S31508000480B9F1000F06D01FB3013FBBF1000F22D010
S315080004902D20B047A7420FD91BF0010F14BF4FF00C
S315080004A0300A4FF0200A254650460135B047BD426E
S315080004B0FAD3B9F1000F08D1444414F8010DB04736
S315080004C0A045FAD105B0BDE8F08FBBF1000FF3D116
S315080004D02D20B047F0E7A742DED8F9E72DE9F0432B
S315080004E08046044618F8010B85B0002855D00F46FB
S315080004F01546002606E0A847444608F10108207874
S3150800050000284AD02528F6D1042EF4D86078302859
S3150800051049D002340021A0F13003092B4FF0000323
S315080005200BD803EB830300EB430314F8010BA0F18C
S315080005303002092AA3F13003F3D96C2830D000F031
S31508000540DF02542A2CD0782822D857282FD9583891
S3150800055020281DD8DFE800F0611C1C1C1C1C1C1C74
S315080005601C1C1C67511C1C1C1C1C1C1C1C1C1C1C3D
S31508000570111C1C331C431C1C11000022CDE901155B
S315080005800092334A57F8260010210136FFF75CFF20
S3150800059004F1010820780028B4D105B0BDE8F0833D
S315080005A014F8010BCFE7A07801210334B3E700283C
S315080005B042D02528ECD1A84704F10108EAE706F15C
S315080005C0010957F8266016F8010B04F1010820B155
S315080005D0A847307801360028FAD14E468FE7CDE98C
S315080005E001150022009257F826001A4A0A21FFF739
S315080005F02BFF013604F1010881E757F82600002889
S31508000600CDE901151BDB002200920A21114AFFF7EA
S315080006101BFF013604F1010871E700220092CDE9BB
S3150800062001150D4AAEE717F8260006F10109A84795
S3150800063004F101084E4662E7A046013C5FE7012245
S3150800064000924042034A0A21FFF7FEFEE1E700BF97
S31508000650EC33000800340008D83300080268012A81
S3150800066010B503460C460DD0022A0AD108480A4698
S3150800067003F10801FFF732FF23460A20BDE81040C0
S31508000680184710BD0A46806803F10C01F2E700BF5F
S315080006901031000810B582B003460C460A460548D4
S315080006A0019301A9FFF71AFF0A20234602B0BDE805
S315080006B01040184730310008012310B503608160E7
S315080006C09E460B4613F8014B002C43D0BEF1060F8D
S315080006D040D0252C9C4608D01CF8014B1946002C06
S315080006E038D06346252C9C46F6D14B7801F1020C8E
S315080006F0A3F13001092905D81CF8013BA3F1300103
S315080007000929F9D96C2B26D003F0DF01542922D008
S31508000710C3B1583BD9B2202916D8202B14D8DFE804
S3150800072003F0771313131313131313131377771392
S31508000730131313131313131313136D13136D137763
S31508000740131377000CF1FF3C61460B4613F8014B77
S31508000750002CBBD110BD614611F8014B002CF3D01B
S31508000760583C5FFA84FCBCF1200FAAD8202CA8D8E4
S315080007700FF2040C5CF824F025080008C3060008EC
S31508000780C3060008C3060008C3060008C306000817
S31508000790C3060008C3060008C3060008C306000807
S315080007A0C3060008130800083D080008C306000829
S315080007B0C3060008C3060008C3060008C3060008E7
S315080007C0C3060008C3060008C3060008C3060008D7
S315080007D0C3060008C3060008FF070008C30600088A
S315080007E0C3060008FF070008C30600082508000816
S315080007F0C3060008C30600082508000861460EF16E
S31508000800020352F8044B40F823400EF1010E58E754
S31508000810614652F8044B0EF102030EF1010E40F840
S3150800082023404EE76C2BF4D0742BF2D0542BF0D126
S31508000830073222F0070252F8084BECE76C2BE8D097
S31508000840742BE6D0073222F0070252F8084BE2E78B
S31508000850704700BF704700BF704700BF704700BFB2
S31508000860704700BF704700BF024B03490022C3E927
S31508000870001270470800002020340008704700BFA7
S3150800088010B4074B074C00223F200121C3E9004260
S31508000890C3E90222C3E904205DF8044B9961704755
S315080008A04002002030340008704700BF704700BF80
S315080008B0704700BF704700BF704700BF704700BF52
S315080008C000F082BA014800F08FBB00BF5034000820
S315080008D000F0DABA00F0A6BA0A2970B50E46044640
S315080008E002D1C368DA062CD401F02AFE00283EDBC2
S315080008F0E36AC3B12268A36AD268D6542268A36A97
S315080009005568E26A01330132AB4208BF0023C4E9E5
S315080009100A32AD1AB5FA85F56D0901F025FE0028EB
S3150800092025DB284670BD256B002DE3D112483146DC
S3150800093000F024FB0028F0D10F48012100F030FB1D
S31508000940D8E70D21FFF7C8FF051EEADBCCD00B4B15
S31508000950586801F09BFD051EC6DA05F13503DBB2C2
S31508000960042B04D8152222FA03F3DB07D9D4012372
S31508000970A3606FF00405D4E750340008103400086B
S3150800098070B5044601F07AFE98BB01F0FFFD002819
S3150800099032DB65683DB16FF0280501F023FE0028BB
S315080009A02ADB284670BD40F21153C4E90335C4E971
S315080009B00555C4E90855C4E90A552577256301F0A4
S315080009C0BFFD002812DB0F4800F090FA0E4B18689E
S315080009D001F07CFE01260B48022100F0E1FAC4E989
S315080009E0016501F0C1FD0028D7DAA6606FF004059D
S315080009F0D3E76FF01805D4E70123A3606FF0040569
S31508000A00CFE700BF50340008183400082DE9F0413C
S31508000A1006460D46174601F031FE00283ED173689A
S31508000A20002B41D0B06800283BD1B7B1DFF88080F1
S31508000A300446012028B1D8F8040001F027FD002853
S31508000A400DDB15F8011B3046FFF746FF002810DBC3
S31508000A500134A742EED180B12046BDE8F08100F10D
S31508000A603503DBB2042B12D8152222FA03F3DB076F
S31508000A700DD5002CF0D1BDE8F0810D4B586801F07A
S31508000A8093FC0028E8DA0123B3602046E5E7012352
S31508000A90B3606FF00400002CEDD0DDE76FF01800AE
S31508000AA0DBE76FF00400D8E76FF02800D5E700BF52
S31508000AB01034000810B5017F044649B9036B0BB919
S31508000AC0C36A5BB9BDE810401448012100F07ABA40
S31508000AD0124800F053FA0023237710BD0268436AD0
S31508000AE0D2680E48D15C00F049FA2268636A5168F8
S31508000AF0E26A01338B4208BF00239142636202D047
S31508000B00013AE26210BD064B586801F04DFC002818
S31508000B10B7BF0123E26AE26AA360F1E7503400082E
S31508000B201034000870B50446414800F02FFAE3680F
S31508000B30D905C0B22ED513285DD0226B002A4DD018
S31508000B40112801D09A0528D5E36A00222263002BD2
S31508000B5043D0374D374E0EE02268636A5168E26A21
S31508000B6001338B4208BF00239142636239D0013AB0
S31508000B70E262002A31D02268636AD2682846D15CCC
S31508000B8000F0FCF90028E7D1BDE8704028480121AB
S31508000B9000F006BA226B002AD2D12368A1691A6826
S31508000BA091421AD09A686369D054226863691168B9
S31508000BB0A26901338B4208BF00236361F2B1E3687F
S31508000BC001325B05A26108D5236A33B923681B681D
S31508000BD003EB4303B2EB930F1BD270BD1128DCD194
S31508000BE070BD706801F0E0FB0028B8BF0123E26A17
S31508000BF0B8BFA360BBE70123236370BD0D4B18681C
S31508000C0001F0D2FB0028B7BF0123A269A269A3603D
S31508000C10D5E70748132100F0B1F928B9044801219E
S31508000C2000F0BEF9132323770123236270BD00BFAA
S31508000C3050340008103400080346406808B1D86AE2
S31508000C4000B9704710B418685A6AC468A25C0A707A
S31508000C5019685A6A4C68D96A01200244A24208BF38
S31508000C60002201395A625DF8044BD962704700BF09
S31508000C7000F026B92DE9F04F8C468BB0EFF31089BA
S31508000C8072B6264C0126636986401E4222D0244B42
S31508000C90E768DA681B68019302EB471801379F4239
S31508000CA028BF00271F4BD4F804A01B680D46D3F8AD
S31508000CB024B00FCDC646AEE80F0095E80F008EE8C3
S31508000CC00F00019BC8F804B05345E7600DD90AF137
S31508000CD001036360A3691E420ED1B9F1010F00D06A
S31508000CE062B600200BB0BDE8F08F2369A760013318
S31508000CF02361A3691E42F0D00A4B1B685D6ABCE8F3
S31508000D000F0002AC0FC49CE80F0084E80F000649E8
S31508000D10039502A8FFF7A2FCDFE700BF4002002008
S31508000D203034000818370020710C00082DE9F0430C
S31508000D30EFF3108772B6184D012F6E6827D006B3E9
S31508000D400027164AA968D368D5F8108003EB411E18
S31508000D5013684C1C84469C4228BF0024BEE80F003A
S31508000D60ACE80F009EE80F00013E4FF000098CE842
S31508000D700F00C5E90164C5F8109027B14046BDE8E3
S31508000D80F0836FF0280862B64046BDE8F0836FF03E
S31508000D902808002ED5D1F1E740020020303400089B
S31508000DA0FFF768BF00B583B0034601220DF10701BE
S31508000DB003488DF80730FFF729FE03B05DF804FBFA
S31508000DC00800002000F07CB830B51248124D134CCC
S31508000DD089B0FFF7D5FD124B02930122694605201B
S31508000DE00092FFF7DDFF6846FFF7A0FF002809DB42
S31508000DF00CD121466846FFF731FC6846FFF796FF97
S31508000E000028F5DA286801F01BFAECE72146FFF717
S31508000E1041FCEEE70800002040340008A50D000854
S31508000E206C31000830B5154C8BB003E09DF807000F
S31508000E3000F046F80DF107012046FFF7FDFE0546CE
S31508000E400028F3D102A8FFF771FF041E0FDB29461D
S31508000E500B4A0C480A4DFFF741FB54B9294602A82C
S31508000E60FFF7FCFB02A8FFF761FF041EF5DA0BB0DB
S31508000E7030BD03492046FFF70DFCEFE708000020C8
S31508000E80C50D00088C31000810B50B4B0B4988B00E
S31508000E90D3E900230291012403200721CDE90301A8
S31508000EA00094694600240520CDE905420793FFF71B
S31508000EB077FF08B010BD00BF483400085834000852
S31508000EC00A2838B5044607D0074D2146284600F0BB
S31508000ED055F80028F9D038BD034D0D21284600F0F5
S31508000EE04DF80028F9D0EFE75034000810B504464D
S31508000EF01F482368D968002221F400518342D9602B
S31508000F001A61DA605A612FD000F09EFB03466268C8
S31508000F101849A1FB03031848A1FB02124FF47A7C77
S31508000F205B09520912010CFB03F3B3FBF2F32268C7
S31508000F30A0FB034189090CFB11331B0103F5FA7366
S31508000F40A0FB0303C3F3831343EA01139360D36837
S31508000F5043F00C03D360536943F001035361D3682C
S31508000F6043F40053D36010BD00F094FB0346CEE76C
S31508000F70001001401F85EB51D34D621003681868B5
S31508000F8010F080001CBF59600120704703681A687A
S31508000F90920646BF5868C0B24FF0FF30704700BF90
S31508000FA0012908D0022900D070470268D36843F0A7
S31508000FB02003D36070470268D36843F08003D36088
S31508000FC0704700BF012908D0022900D0704702687F
S31508000FD0D36823F02003D36070470268D36823F0F0
S31508000FE08003D360704700BF03681A68910606D469
S31508000FF01B681B0600D470470848FFF75BBD10B591
S3150800100004460648FFF78EFD23681B681A0600D4B7
S3150800101010BDBDE810400148FFF74CBD0800002090
S3150800102008B5FFF715FCFFF715FCFFF715FCFFF7EA
S3150800103015FCFFF715FCFFF715FCFFF715FCFFF786
S315080010401DFCFFF71DFCFFF72FFCFFF72FFCFFF732
S315080010502FFCFFF72FFCFFF72FFCBDE80840FFF732
S315080010602DBC00BF0148FFF72DBC00BF1C3400088B
S3150800107008B500F0DBFD01F07FF901F013FBBDE8D0
S31508001080084001F083BB00BFF0B50368DE0783B0F4
S31508001090044638D5A0498A6802F00C02042A00F0F2
S315080010A0EE808A6802F00C02082A03D14A685502C3
S315080010B000F1E580984D0023AB7001F003FC41F286
S315080010C08837064605E001F0FDFB831BBB4200F2AC
S315080010D0C5802B689903F6D42379AB706368002B17
S315080010E000F00A8101F0EEFB8B4E054641F2883787
S315080010F005E001F0E7FB401BB84200F2AF80336819
S315080011009A03F6D523689F072DD5834A916811F06F
S315080011100C0F00F0AA80916801F00C01082900F074
S31508001120A080E368002B00F0D6807C4B7A4E012223
S315080011301A6001F0C7FB054605E001F0C3FB401B3A
S31508001140642800F28B8033689807F6D53168F82250
S3150800115092FAA2F22369B2FA82F2934021F0F802D7
S315080011601343336023681A071FD4580734D4A36976
S31508001170C3B1694DAA6802F00C02082A7CD0022B7A
S31508001180664B4FF000021A6600F0CC8001F09AFB1D
S31508001190044604E001F096FB001B64285ED82B6821
S315080011A09B01F7D4002003B0F0BD6369002B70D013
S315080011B05A4B594E0122C3F8802E01F083FB05468F
S315080011C004E001F07FFB401B642847D8736F9B0738
S315080011D0F7D523685807CAD54F4B514D1A6C42F0BC
S315080011E080521A641B6C03F080530193019B2B6891
S315080011F043F480732B6001F065FB064604E001F0BA
S3150800120061FB801B642829D82B68D905F7D5424D80
S31508001210002385F8703001F055FB41F28837064601
S3150800122004E001F04FFB801BB84217D82B6F9A07D2
S31508001230F7D4237A85F87030A368002B00F0B280C3
S3150800124001F040FB344E054641F28837336F9B0761
S315080012508DD401F037FB401BB842F7D9032003B001
S31508001260F0BD526856023FF55CAF2B4A12689507E7
S3150800127020D5E268012A1DD0012003B0F0BD264A18
S31508001280126890037FF53FAF6268002A7FF43BAF90
S31508001290F2E7224A204EC2F8803E01F013FB0546CB
S315080012A004E001F00FFB401B6428D7D8736F9F0733
S315080012B0F7D48EE7184DF821286891FAA1F122692A
S315080012C0B1FA81F120F0F8008A4002432A601A0731
S315080012D07FF54BAF69E7114A0F4E136001F0F2FA3A
S315080012E0054604E001F0EEFA401B6428B6D83368D8
S315080012F09907F7D4236836E701F0E4FA064E05465F
S3150800130041F2883704E001F0DDFA401BB842A5D85F
S3150800131033689B03F7D4F5E60038024000004742DD
S315080013200070004001F0CEFA064604E001F0CAFA61
S31508001330801B642892D82B689901F7D447F6C070A9
S3150800134090FAA0F04FF44036B0FA80F096FAA6F676
S315080013504FF07061B6FA86F691FAA1F1A36A5A08B7
S31508001360013AB240D4E907363343666A8640E06AF2
S31508001370B1FA81F1334300FA01F1134311480B43E3
S3150800138001226B60026601F09DFA0F4D044605E0E6
S3150800139001F098FA001B64283FF660AF2B689A01A3
S315080013A0F6D5FFE601F08EFA074E054641F2883774
S315080013B0336F98077FF5DBAE01F084FA401BB8421D
S315080013C0F6D94BE700004742003802407F4A1368C7
S315080013D003F00F038B422DE9F0410C4605465AD21D
S315080013E0CBB21370136803F00F038B4202D00120AF
S315080013F0BDE8F08103689F0706D5754980688A6845
S3150800140022F0F00202438A60DE072BD56A68012AB9
S3150800141000F0A380931E012B6D4B1B6840F2998048
S315080014209907E4D56A4CA36823F003031343A36022
S3150800143001F048FA6B68012B064600F0A280022BE1
S3150800144000F0AD80032B00F0B88041F2883704E045
S3150800145001F038FA831BBB4267D8A36813F00C0F58
S31508001460F6D12B685A0706D55949E8688A6822F4DE
S31508001470E05202438A601B0707D5554A29699368D3
S3150800148023F4604343EAC10393600F2001F018FA7E
S315080014900020BDE8F08103689A0706D54C498068A4
S315080014A08A6822F0F00202438A60DF0725D56A6857
S315080014B0012A2DD0931E012B454B1B6838D9990755
S315080014C095D5434EB36823F003031343B36001F085
S315080014D0F9F96B68012B07462DD0022B43D0032B55
S315080014E01BD041F2883804E001F0ECF9C31B4345F0
S315080014F01BD8B36813F00C0FF6D1344BE2B21A704E
S315080015001B6803F00F03A3427FF471AF2B68A9E7AA
S315080015102F4B1B689E03D4D469E741F28834B3681D
S3150800152001F0D0F9C01BA042F9D90320BDE8F0812B
S315080015309801C6D45BE741F2883804E001F0C2F9A5
S31508001540C01B4045F1D8B36803F00C03042BF5D152
S31508001550D3E798013FF566AF49E71D4B1B689C0327
S315080015603FF560AF43E741F2883804E001F0AAF995
S31508001570C01B4045D9D8B36803F00C03082BF5D136
S31508001580BBE741F2883704E001F09CF9831BBB42B4
S31508001590CBD8A36803F00C03042BF5D161E741F21D
S315080015A0883704E001F08EF9801BB842BDD8A368DD
S315080015B003F00C03082BF5D153E741F28835A368ED
S315080015C001F080F9801BA842F9D9AEE7003C024039
S315080015D000380240194A936803F00C03042B2AD0FA
S315080015E0082B01D01648704751685368506801F0B7
S315080015F03F0147F6C0725B0292FAA2F3B3FA83F38D
S3150800160000EA020020FA03F04CBF0E4B0C4BB3FB6A
S31508001610F1F303FB00F0094B4FF440325B6892FA92
S31508001620A2F2B2FA82F203F44033D34001335B00EC
S31508001630B0FBF3F070470348704700BF003802401C
S315080016400024F40000127A0010B50F4CFFF7C2FF11
S31508001650A368F02292FAA2F2B2FA82F203F0F00339
S315080016600A49D3400A4ACB5CD8401060A3684FF4B5
S31508001670E05292FAA2F2B2FA82F203F4E053D340AD
S31508001680CB5CD84010BD00BF003802400C380008BB
S315080016900000002010B50F4CFFF79CFFA368F0224E
S315080016A092FAA2F2B2FA82F203F0F0030A49D340A0
S315080016B00A4ACB5CD8401060A3684FF4604292FA9D
S315080016C0A2F2B2FA82F203F46043D340CB5CD8406C
S315080016D010BD00BF003802400C380008000000208A
S315080016E0274B28481A6C30B542F001021A641B6C65
S315080016F083B003F00103002100934FF08044542285
S315080017004FF0FF33C0E90042C0E90213009D0161B2
S3150800171001F0F8FB30BB1B4801F080FB48BB184BB7
S31508001720194C1A6C194942F008021A641B6C03F02A
S315080017300803019354220025C4E900120198256183
S31508001740FF2308212046C4E9025301F0F7FB98B9A4
S3150800175023686FF001021A61DA6842F00102DA6062
S3150800176003B030BD01F036F8064801F057FB0028F3
S31508001770D5D001F02FF8D2E701F02CF8E8E700BF42
S315080017800038024018370020D8360020000C0040E8
S3150800179008B50A4801F052FB20B9094801F04EFB8A
S315080017A038B908BD01F016F8054801F047FB0028CE
S315080017B0F7D0BDE8084001F00DB800BF1837002083
S315080017C0D8360020034B1B686FF001021A6100F03F
S315080017D097BC00BFD83600200EB400B58AB00BAA55
S315080017E002A852F8041B0192FEF766FF02A9002020
S315080017F0FFF7D6FA0AB05DF804EB03B0704700BFEE
S31508001800031F0B2B11D80E4B820853F822301A6887
S3150800181000F00300C0004FF0FF0C0CFA00FC22EAAF
S315080018200C028140114319607047A0F11003542B34
S31508001830FAD823F0030303F1604303F56443E6E7AC
S315080018401C380008043803280BD8DFE800F01D14FC
S315080018500B024FF0E022D2F8243D43F40023C2F8ED
S31508001860243D70474FF0E022D2F8243D43F480230C
S31508001870C2F8243D70474FF0E022D2F8243D43F4E5
S315080018800033C2F8243D70474FF0E022D2F8243DD9
S3150800189043F48033C2F8243D704700BF10B41023C8
S315080018A083F311883348344A002301210360116009
S315080018B0BFF34F8F4FF0E0223049C2F8081DD2F827
S315080018C0181D2F4821F0FF01C2F8181DD2F8181D5F
S315080018D0006821F47F41C2F8181DD2F8181D21F4BA
S315080018E07F01C2F8181DD2F81C1D21F07F41C2F8ED
S315080018F01C1DD2F8201D21F0FF01C2F8201DD2F8C8
S31508001900201D21F47F0141F47001C2F8201DD2F890
S31508001910241D41F48031C2F8241DD2F8241D41F457
S315080019200031C2F8241DD2F8241D41F48021C2F8E2
S31508001930241DD2F8141D21F40071C2F8141DD2F822
S31508001940881D4FF0404441F47001C2F8881DC2F862
S31508001950344F60B100EB80000A4A0B4C4000116915
S3150800196044F823100A33834202F11802F7D15DF8CE
S31508001970044B7047543700205837002000000008F1
S3150800198008380008D8370008A816002082B0044B8B
S315080019900193019B13B1019B02B0184702B070472F
S315080019A0DD28000870B5A0F10F03552B88B02ED896
S315080019B002F110030F2B1CD85342DBB28E46C3F13B
S315080019C010030F284FEA03110EF0010433D0A0F1DB
S315080019D0100C4FEA5C131F4A0CF01F0C012606FA7E
S315080019E00CF642F823609D00FFF70AFFECB908B031
S315080019F070BD1948194B029002244FF49272694639
S31508001A000020CDE903230094FFF7CAF9FEE7124840
S31508001A10134B0290022440F2231269460020CDE9B6
S31508001A2003230094FFF7BCF9FEE705F1604303F5CD
S31508001A3061431E60DBE74FF0E0252B6923F00203C4
S31508001A402B61FFF7DDFE002CD1D02B6943F0020392
S31508001A502B61CCE780E100E0A8310008F8310008E6
S31508001A60DC31000810B5EFF31184EFF30582054B5E
S31508001A7053F822309847044B00221A6084F31188E1
S31508001A8010BD00BFD0350008583700202DE9F041B9
S31508001A90D0E90867D0F8008084B00446EFF30585DE
S31508001AA007490020FFF798FE064902943346C5F316
S31508001AB008020020CDE90078FFF78EFE00F086FECA
S31508001AC0303200085032000810B5EFF30584064995
S31508001AD00020FFF781FE05490020C4F30802FFF73E
S31508001AE07BFE00F073FE00BF94320008B432000893
S31508001AF0F8B5FFF795FA00F083FE00F0B1F9FFF7A5
S31508001B00B7FA0D4B1D6855B10C4E0024371F57F810
S31508001B10343056F8340001349847AC42F7D1084AB5
S31508001B20084B1268526A1A6000F028FA064B01221E
S31508001B301A60FEF7E3FB00BF883700087C37000809
S31508001B40183700200C3800205C370020F8B5084B01
S31508001B501D6855B1074E0024371F57F8343056F81C
S31508001B60340001349847AC42F7D100F02FFE00BF8D
S31508001B707437000868370008134B1888A8B1C3B231
S31508001B8083B1002210F00F01104B08BFC0F30311F8
S31508001B900B4408BF043213F8013C0D48134450F8AF
S31508001BA033007047000A0822ECE710B588B00949E7
S31508001BB0094B0291022497226946CDE90323009432
S31508001BC0FFF7EEF8FEE700BF603700202C38000864
S31508001BD068370020C4320008E032000890F80EC0CA
S31508001BE00E4B0F4A03EBCC0110B44C6844600160FD
S31508001BF0206048600B4914880968012303FA0CF32E
S31508001C002343138031B1084A136813B19B7B63459C
S31508001C1000D910605DF8044B704700BF6837002094
S31508001C2060370020E8370020F03700202DE9F84F0C
S31508001C30294D2A4C2A482B492B4B00222A60226020
S31508001C40012202600A6003F18002C3E90033083307
S31508001C509342FAD1254A264BD2F800A000241C80CC
S31508001C60BAF1000F36D0DFF89090DFF890B0214E29
S31508001C70DFF88C802546012702E00134544529D037
S31508001C8059F8043B013B03EB83000BEBC00003EB65
S31508001C904303C27B56F833E0057306EBC30122F013
S31508001CA01F0291F80CC0816042F008031EF0010F74
S31508001CB080F80DC080F80EC0C3734561DDD04B694E
S31508001CC04562203BC0E9063807730134FFF786FFF3
S31508001CD05445D5D1BDE8F88FF4370020F0370020F9
S31508001CE0EC370020E837002068370020083800085D
S31508001CF060370020D8370008D0370008881600203B
S31508001D009903000830B5D0E90014827B2A4B21607C
S31508001D104C6053F8321003EBC204A14289B00BD0D1
S31508001D20264B1A68824201D009B030BD244A106891
S31508001D3090B1196009B030BD6368994219D021483D
S31508001D40214B029002249A2269460020CDE90323FA
S31508001D500094FFF725F8FEE71C491D4B0291022463
S31508001D604FF489726946CDE903230094FFF718F802
S31508001D70FEE7184C114D2388012101FA02F223EAE5
S31508001D8002032A6823808242CED10D4A106810B118
S31508001D9073B92B60C8E70D490D4B029102244FF425
S31508001DA086726946CDE903230094FEF7F9FFFEE73C
S31508001DB0FFF7E2FE0346ECE768370020F03700201D
S31508001DC0E8370020F03200080C330008C432000857
S31508001DD0283300086037002010B5037BD90704466E
S31508001DE025D413F07C0F14D163691BB1194B204617
S31508001DF01B689847E37BA068002123F01E03217324
S31508001E00027B627343F00803A273DA07E37311D403
S31508001E1010BD13F0600F03D0D0E9003213605A608A
S31508001E20236918680028DFD000F020F9DCE7FFF7FF
S31508001E3069FFD9E761F30003E37343690648616202
S31508001E400122203B2273C4E906302046BDE8104033
S31508001E50FFF7C4BEF8370020990300080000000009
S31508001E609FED0B7B0C4B0D490D4A0E4810B483EDC4
S31508001E70007B0D4C00230B600C4923600C4C04605E
S31508001E800B605DF8044B1260704700BFAFF300802B
S31508001E900000000000000000003800201038002074
S31508001EA05C06002014380020FC3700200838002083
S31508001EB0003E14F470B4184C031B25689B1004EB01
S31508001EC0C303AB4226D8154A1668A1EB060C12E0E6
S31508001ED05D682D68AD1B954215D22A460B1B9B10D3
S31508001EE0944504EBC30315D90A6802605060256857
S31508001EF09D4208460ED3194651F8042B1268A9428A
S31508001F00A2EB0602E4D919460B1B9B10944504EB79
S31508001F10C303E9D870BC70475C060020143800205B
S31508001F200F4B10491B6870B40F4C586A0B6822682F
S31508001F300E4D0860C31A991821602C680C480D4E7E
S31508001F40A21A08449A42306002D2A14202D32960FA
S31508001F5070BC7047084A536801335360F7E700BFFF
S31508001F60183700200C3800201038002008380020C8
S31508001F70003E14F41438002000380020174A184888
S31508001F80134610B453F8044B01689C421BD352689D
S31508001F90144B154C1B6812682468A2EB030CE31A51
S31508001FA09C4504D801235DF8044B4B6170470F4BE1
S31508001FB0121B9A4209D900224A625DF8044BCB6289
S31508001FC0C36000F02BBF094BF5E700234B625DF8B1
S31508001FD0044BCA62C26000F021BF00BF5C06002045
S31508001FE0D8360020143800201038002002286BEE5E
S31508001FF0F8B506460F46FFF793FF184B184D1B68B2
S315080020002C68284603F1010C04340CEB07033360F3
S3150800201040F8044B84421BD9124A1768A3EB070CF5
S3150800202003E0844211604A6012D9631BDB10224622
S3150800203055F8231005EB83040B68DB1B6345F0D8C2
S31508002040094B16601B6872600BB9824202D0F8BD54
S315080020502246F5E7BDE8F840FFF790BF10380020A4
S315080020605C06002014380020FC370020F8B5214C07
S31508002070466822682546131F45F8043BAB4218D329
S315080020801368AE4219680DD91B4B1F68331BDB104A
S31508002090A1EB070C54F823000268D21B944504EB05
S315080020A083030CD33046FFF705FF23685B6803609C
S315080020B05860124B1B680BB9AE4215D0F8BDAB423F
S315080020C0306046600ED91A1BD210184654F82210F2
S315080020D004EB82030A68D21B9445E6D2AB42016040
S315080020E04860F0D81846E0E7FFF71AFFBDE8F84061
S315080020F0FFF744BF5C06002014380020FC37002098
S315080021002DE9F04F8BB0EFF3148515F00203019318
S315080021100DD04148414B0490022440F2512202A9B5
S315080021200020CDE905230294FEF73AFEFEE7DFF824
S315080021300481D8F80030002B57D1EFF31182102311
S3150800214083F31288364901230A60C8F80030BFF3C2
S315080021504F8FDFF8E4A0DFF8E490324F324ECAF82A
S31508002160003009F10404FFF7DBFED9F80000A042AD
S3150800217029D300220AE0DBE902309847D9F80000A3
S31508002180019B01221344A0420193ECD3D9F804B071
S315080021903B68DBF800103568C91AEB1A9942A0F1BA
S315080021A0040C0ED8A445C9F800C0E4D30368204639
S315080021B01968FFF77FFED9F800305B68036058603E
S315080021C0D9E7002ACFD1019BEBB1FFF7D7FE002351
S315080021D0CAF80030C8F80030BFF34F8F104B1B68A1
S315080021E083F311880BB0BDE8F08F0B490F4B0491B0
S315080021F0022440F252220198029402A9CDE905234D
S31508002200FEF7CEFDFEE70A4B0493012202A905203C
S315080022100292FEF7C5FDD8E73033000850330008B0
S315080022205437002014380020103800206033000886
S315080022307033000858370020FC3700205C06002061
S31508002240EFF314839A0725D570B5224D2B6886B00F
S31508002250002B39D1204A1268002A35D01F4A9042ED
S31508002260044634D8102282F311881D4901220B60D6
S315080022702A60BFF34F8F1B4E3068C37B5B070CD5B4
S315080022806FF0340000232B60BFF34F8F83F3118860
S3150800229006B070BD6FF01800704708230373FFF788
S315080022A031FD3368059301AA1A6102A80E4B019005
S315080022B021460493FFF79CFE0C4B3068196832469A
S315080022C0FEF736F80198DDE76FF01800E0E76FF0E3
S315080022D01000DDE758370020E837002000286BEEAD
S315080022E054370020F4370020E92F0008F037002083
S315080022F008B5EFF314839B0719D5194B1A68CAB1A9
S31508002300184B1A686AB9184A116809B90121116087
S3150800231016490A68F2B901221A60FFF72DFC144B18
S315080023201860144B1868FFF757FDFDF7F8FF6FF0B4
S31508002330180008BDEFF31180102282F312880B49AA
S31508002340012208601A60BFF34F8F064B1A68002AED
S31508002350E7D1D8E71209102A1CBF00220A60DAE77B
S3150800236058370020E8370020EC3700205437002083
S31508002370F0370020F4370020084B186868B1084B7E
S31508002380084A03EB001051689A60D960C3E9003324
S315080023901033834202F10C02F5D17047CC3700089E
S315080023A068160020B4370008F0B5304C256889B0A7
S315080023B0002D58D1002853DD2D4B1B6883424FDB77
S315080023C00138EFF31183102282F31288294E336005
S315080023D001232360BFF34F8F274A010102EB001345
S315080023E0505883421AD0076857507B6000F0CEFDDC
S315080023F0224A234B10681968884205D0EFF31483E4
S315080024009B071BD5FDF794FF00232360BFF34F8F6F
S31508002410336883F31188284609B0F0BD5A68934299
S3150800242013D01849184B029102249A222846694665
S31508002430CDE903230094FEF7B3FCFEE74FF0E02353
S315080024404FF08052C3F8042DDEE7D3E902128968FB
S315080024508A4202D20132DA60D6E76FF02A05D3E75C
S315080024606FF01105D7E76FF01805D4E75837002045
S31508002470CC3700085437002068160020F4370020AF
S31508002480F0370020F03200080C330008EFF314820E
S31508002490910727D530B5234C0346206883B000281A
S315080024A03AD1214A1268002A36D0002B37DD1F4A56
S315080024B012689A4233DB102282F311881C490122E2
S315080024C008602260BFF34F8F1A4D2A68D27B5207E5
S315080024D00BD4194A013B02EB0313DA687AB1013AC5
S315080024E0DA6004E06FF0180070476FF034000023DC
S315080024F02360BFF34F8F83F3118803B030BD1846AE
S315080025006A46402100F0BEFD0C4B286819682A4629
S31508002510FDF70EFF0098EAE76FF01800EDE76FF099
S315080025201100EAE758370020E8370020CC370008C2
S3150800253054370020F437002068160020F0370020B2
S31508002540074B1A6852B9EFF31180102282F31288EA
S315080025500449012208601A60BFF34F8F00207047B4
S315080025605837002054370020064B1A683AB1002223
S315080025701A60BFF34F8F044B1B6883F31188002042
S31508002580704700BF5837002054370020EFF31483F4
S315080025909B071BD50F4B1868C0B910B4EFF311840D
S315080025A0102282F312880C4A012114601960BFF3C5
S315080025B04F8F0A4C0A49206008601860BFF34F8F96
S315080025C0136883F311885DF8044B70476FF01800A1
S315080025D0704700BF5837002054370020EC370020DA
S315080025E0E837002070B5EFF314839B071DD51D4D02
S315080025F02C68D4B9EFF31182102383F312881A4E8C
S31508002600012332602B60BFF34F8F184A136033687B
S315080026107BB11B09102B0CD000232B60BFF34F8F07
S31508002620336883F31188204670BD6FF0180420467E
S3150800263070BD0F4B01221A60FFF79EFA0D4B0E4A2A
S31508002640186001461068C37B03F00C030C2B04D0FA
S315080026508842E1D0FDF76CFEDEE7FFF7BDFBFDF72C
S315080026605EFE00BF5837002054370020EC370020A4
S31508002670E8370020F0370020F4370020EFF3148302
S315080026809B0702D5054B1B680BB101207047044B0D
S315080026901868B0FA80F04009704700BF5837002024
S315080026A0E8370020074B70B51E6856B1064C002562
S315080026B0D4E90112013554F80C0BFFF773F9B5424A
S315080026C0F6D170BDB037000898370008A0F10F039F
S315080026D0552B51D82A4970B40C6800F01F03012203
S315080026E04FEA501C02FA03F3F4B1264A52F82C209A
S315080026F013423DD00F282FD0103843099B0003F111
S31508002700604303F5614300F01F00012282401A600E
S3150800271044BB1D4D002000230B60BFF34F8F2B6871
S3150800272083F3118870BC7047EFF31186102585F383
S315080027301288154D2E600A60BFF34F8F114A52F862
S315080027402C20134211D00F28D6D14FF0E02213695E
S3150800275043F002031361DDE74FF0E022136943F00B
S3150800276002031361002070BC70476FF02800D2E79F
S315080027706FF0280070BC70476FF01000704700BFFC
S3150800278058370020B435000854370020074B70B579
S315080027901D6855B1064E05EB4505002456F824007C
S315080027A00334FFF74FF8AC42F8D170BD94370008F0
S315080027B0DC30000808B500F093F8024A024B1268AC
S315080027C01A6008BD903700080000002008B5FFF71A
S315080027D0DDF8FEE700B5002083B000F0A3F800247A
S315080027E00194019BB3F5801F06DA019B013301931F
S315080027F0019BB3F5801FF8DB002000F0BBF8EFE77C
S3150800280010B588B0FFF74AF8284B1A6842F40072E8
S315080028101A601A6842F480621A601A6842F4807272
S315080028201A6000F0B1F8002000F07CF8204B1A6B13
S3150800283042F001021A631A6B02F001020192019A30
S315080028401A6C42F400321A641B6C03F4003302203B
S31508002850029304210123CDE904030724039106907A
S3150800286003A91448029A079400F0DAF808231148D5
S31508002870039303A9079400F0D3F80F480F494FF4C0
S31508002880E132C0E9001200234FF480544FF4C061CE
S315080028900C22C0E90243C0E90412C0E9063300F07D
S315080028A08BFA08B908B010BDFFF794FF003C024048
S315080028B0003802400000024018380020004400405A
S315080028C000207047034A044B1068A3FB00308009B8
S315080028D0704700BF0C380020D34D6210704700BF08
S315080028E00D4B0E481A68002142F0010210B41A6016
S315080028F099601A680A4C22F0847222F480321A60AF
S315080029005C601A685DF8044B22F480221A604FF066
S315080029100062D960826070470038024000ED00E02E
S315080029201030002430B5044689B048B90F4B1A6BED
S3150800293042F001021A631B6B03F001030193019B2A
S315080029400B4D20220123CDE9022355F8240002234A
S3150800295002A90122CDE9042300F062F855F8240003
S315080029600022202100F04EF909B030BD003802409F
S3150800297004000020024B202153F8200000F046B93D
S315080029800400002000000000234B244A196C30B5CF
S3150800299041F0805119641B6C95B003F08053019384
S315080029A0019B136823F4404343F400431360136800
S315080029B09FED177B022003F4404310210293012464
S315080029C0089000224FF4A8730E9008A8CDE90B4191
S315080029D08DED127BCDE90F21029D1193FEF754FB75
S315080029E078B90F2002210023CDE903014FF4805264
S315080029F003A8CDE905320793FEF7E8FC20B915B020
S31508002A0030BDFFF7E7FEECE7FFF7E4FE15B030BD93
S31508002A100400000007000000003802400070004073
S31508002A202DE9F04F85B00C68DFF8CCB1009400238F
S31508002A3003E00133102B00F08F80012202FA03F520
S31508002A40009A05EA020E35EA0202F2D14A688E6851
S31508002A505F00032422F0100806FA07FA02EA040CBB
S31508002A6004FA07F6B8F1020F6FEA06060CFA07FC35
S31508002A7075D0D0F8009008F1FF3809EA060949EA46
S31508002A800C0CB8F1010FC0F800C040F28880C56888
S31508002A90354045EA0A05C560D500CAD5534E756C5A
S31508002AA045F480457564756C05F480450395039D6A
S31508002AB023F0030505F1804503F003070F2405F508
S31508002AC09C35BF0004FA07FC494CAE68A04226EACA
S31508002AD00C0615D004F58064A04277D0454CA04278
S31508002AE079D0DFF818C160457BD0DFF814C160459E
S31508002AF00CBF4FF0040C4FF0050C0CFA07F73E43D9
S31508002B00AE60DBF800506FEA0E06D40354BF3540BA
S31508002B104EEA0505CBF80050DBF80450970354BF7E
S31508002B2035404EEA0505CBF80450DBF80850D402C8
S31508002B3054BF35404EEA0505CBF80850DBF80C5073
S31508002B40920203F1010354BF35404EEA0505102BE6
S31508002B50CBF80C507FF471AF05B0BDE8F08F23FABF
S31508002B6004F803F0070E0C6900EB88084FEA8E0E8E
S31508002B7004FA0EF4D8F8209001940F2404FA0EFEF5
S31508002B80019C29EA0E0944EA090EC8F820E0D0F8A3
S31508002B9000E00EEA060E4EEA0C0CC0F800C0D0F8AB
S31508002BA008C0CC680CEA060C04FA07F747EA0C07D3
S31508002BB08760476812099A4027EA05052A43426052
S31508002BC0C268324042EA0A02C26032E7012404FAC5
S31508002BD007F73E4394E74FF0020C0CFA07F73E431B
S31508002BE08EE7032404FA07F73E4389E700380240D4
S31508002BF00000024000080240003C0140000C024070
S31508002C000010024002B909048161704743695940BE
S31508002C104161704702681169F8B50446C068A3683F
S31508002C20256921F4405101431161D168E0692B43BC
S31508002C30656921F416412B4321F00C0103430B432C
S31508002C40D3605369A16923F440730B43B0F5004F71
S31508002C505361564B54D09A4236D003F580639A4254
S31508002C6032D0FEF7F1FC6368514E00EB80009B0002
S31508002C7000EB8000B0FBF3F5FEF7E6FCA6FB053596
S31508002C8063686D0900EB800000EB80009B002D0156
S31508002C90B0FBF3F7FEF7D8FCD4E9002300EB80007D
S31508002CA09B0000EB8000B0FBF3F0A6FB0030400968
S31508002CB0642303FB10731B013233A6FB0363C3F3C0
S31508002CC043132B439360F8BDFEF7E4FC6368384E64
S31508002CD000EB80009B0000EB8000B0FBF3F5FEF7ED
S31508002CE0D9FCA6FB053563686D0900EB80009B00DF
S31508002CF02D0100EB8000B0FBF3F7FEF7CBFCCBE72A
S31508002D009A4236D003F580639A4232D0FEF79CFC8D
S31508002D106368274E00EB80005B0000EB8005B5FB7F
S31508002D20F3F5FEF791FCA6FB053563686D0900EB24
S31508002D30800000EB80005B002D01B0FBF3F7FEF787
S31508002D4083FCD4E9001300EB80005B0000EB8000F5
S31508002D50B0FBF3F2A6FB02325209642303FB12739B
S31508002D601B013233A6FB0363C3F343132B438B6068
S31508002D70F8BDFEF78FFC63680D4E00EB80005B0024
S31508002D8000EB8000B0FBF3F5FEF784FCA6FB0535E7
S31508002D9063686D0900EB80005B002D0100EB800085
S31508002DA0B0FBF3F7FEF776FCCBE700BF0010014057
S31508002DB01F85EB51704700BF58B310B590F83930EE
S31508002DC0044603F0FF02FBB12268022384F8393077
S31508002DD0D36823F400532046D360FFF71BFF23680C
S31508002DE01A6922F490421A615A6922F02A025A6133
S31508002DF0DA6800214FF0010C42F40052DA60E16310
S31508002E0084F839C0084610BD80F83820FFF7D2FF8D
S31508002E10DAE70120704700BF704700BF0168022249
S31508002E2080F839200A6803464FF0010C42EA0C0282
S31508002E300A60002083F839C0704700BF0222036881
S31508002E4080F83920196A41F21112114208D1196A1B
S31508002E5040F24442114203D11A6822F001021A6074
S31508002E60012380F839300020704700BF704700BF43
S31508002E7030B4224D8C6803680A68A8422CD0B0F199
S31508002E80804F1AD0A5F57C45A84216D005F5806571
S31508002E90A84212D005F58065A8420ED0184DA84262
S31508002EA00FD005F58065A8420BD005F58065A842C8
S31508002EB007D00360C46282620AE04D6823F070039B
S31508002EC02B43C96823F440730B430360C4628262D0
S31508002ED0012330BC436170474D6823F070032B43D0
S31508002EE0CD6823F440732B430360C46282620B6986
S31508002EF00363012330BC4361704700BF00000140F3
S31508002F0000400140C0B110B590F83930044603F0CE
S31508002F10FF0263B12146022384F8393051F8040BC5
S31508002F20FFF7A6FF012384F83930002010BD80F88A
S31508002F303820FFF771FFEDE70120704710B338B569
S31508002F4090F839300D46044603F0FF02ABB121462E
S31508002F50022384F8393051F8040BFFF789FF036818
S31508002F6023F00803036003684FF0010C2B4303604A
S31508002F70002284F839C0104638BD80F83820FFF79B
S31508002F8075FFE4E701221046704700BF10B50369D4
S31508002F900446186888B010B1FFF768F8236900225C
S31508002FA01A60237B13F07C000DD09B0703D5022300
S31508002FB0237308B010BD01232046237308B0BDE86B
S31508002FC01040FEF70BBE0649064B029102247122F9
S31508002FD06946CDE903230094FDF7E2FEFEE700BF4C
S31508002FE0A0330008BC33000830B50269002111601F
S31508002FF0027B12F07C0189B02AD0920723D50222DF
S3150800300002731A4A1A4B12681B689A4205D04FF087
S31508003010E0234FF08052C3F8042D164B00221A60A5
S31508003020BFF34F8F144A116881F3118800BFEFF37D
S315080030301180102181F31288012110601960BFF3F5
S315080030404F8F09B030BD01220273FEF7C7FDD8E7DE
S315080030500A4B0B4C02940225712208466946CDE9B3
S3150800306003230095FDF79CFEFEE700BFF43700201A
S31508003070F03700205837002054370020BC330008AA
S31508003080A033000870B5144E336804461973184601
S315080030901546FEF737FEA36831681B680D610022E6
S315080030A0DB072A6006D46368C1E9004319606160DA
S315080030B06C6070BD2368887B9C4203D105E01B6861
S315080030C09C4202D09A7B8242F9D95A68C1E90032F9
S311080030D0116059606C6070BDF437002078
S315080030DC48656C6C6F20576F726C64212054686954
S315080030EC73206973206D792074686972642063751E
S315080030FC73746F6D206170706C69636174696F6E3F
S3150800310C0000000025733A25753A204173736572E1
S3150800311C74696F6E2060257327206661696C656417
S3150800312C2E0700002564206D65737361676573202F
S3150800313C617265206C6F73742E0000004E55434CFB
S3150800314C454F2853544D33324634303152453A4163
S3150800315C524D20436F727465782D4D34290000004A
S3150800316C53797374656D206C6F6767696E67207425
S3150800317C61736B20697320737461727465642E00B5
S3150800318C2D2D206275666665726564206D65737390
S3150800319C61676573202D2D0A000000002E2E2F2E38
S315080031AC2E2F617370332F617263682F61726D5F96
S315080031BC6D5F6763632F636F6D6D6F6E2F636F72D1
S315080031CC655F6B65726E656C5F696D706C2E6300FE
S315080031DC56414C49445F494E544E4F5F4346474906
S315080031EC4E5428696E746E6F290000002D28312004
S315080031FC3C3C2054424954575F4950524929203C7B
S3150800320C3D20696E7470726920262620696E74706A
S3150800321C7269203C3D20544D41585F494E545052DA
S3150800322C490000000A556E726567697374657265A4
S3150800323C6420457863657074696F6E206F63637577
S3150800324C72732E004578636E6F203D2025303878D2
S3150800325C205043203D202530387820585053522092
S3150800326C3D20253038782062617365707269203D7F
S3150800327C20253038582C20705F657863696E662077
S3150800328C3D202530385800000A556E7265676973FB
S3150800329C746572656420496E7465727275707420F3
S315080032AC6F63637572732E00496E746E6F203D20C2
S315080032BC25303878000000002E2E2F2E2E2F617305
S315080032CC70332F6B65726E656C2F7461736B2E631E
S315080032DC000000006269746D617020213D20305534
S315080032EC000000002E2E2F2E2E2F617370332F699F
S315080032FC6E636C7564652F71756575652E6800004F
S3150800330C705F71756575652D3E705F707265762098
S3150800331C3D3D20705F717565756500006473706658
S3150800332C6C6700002E2E2F2E2E2F617370332F6B89
S3150800333C65726E656C2F74696D655F6576656E74FE
S3150800334C2E63000073656E73655F636F6E746578C4
S3150800335C742829002173656E73655F6C6F636B281F
S3150800336C290000006E6F2074696D65206576656EA0
S3150800337C742069732070726F636573736564206952
S3150800338C6E2068727420696E746572727570742E0C
S3150800339C000000002E2E2F2E2E2F617370332F6BEC
S315080033AC65726E656C2F776169742E680000000073
S315080033BC54535441545F57414954494E4728705FFA
S315080033CC7463622D3E747374617429003031323320
S315080033DC34353637383941424344454600000000F7
S315080033EC3031323334353637383961626364656661
S315080033FC00000000303132333435363738390000A6
S3150800340C0100000001000000020000003600000068
S3150800341C0100000000010000000100003C01002032
S3150800342C3C000020200000003F00000001000000C6
S3150800343C5C02002010270000E80300004831000851
S3150800344CA43100080044004000C201000A544F5041
S3150800345C504552532F41535033204B65726E656C51
S3150800346C2052656C656173652025642E25582E25BA
S3150800347C6420666F7220257320284A756C203237B3
S3150800348C20323032352C2031353A33353A3036291C
S3150800349C0A436F7079726967687420284329203249
S315080034AC3030302D3230303320627920456D6265EC
S315080034BC6464656420616E64205265616C2D546980
S315080034CC6D652053797374656D73204C61626F72E8
S315080034DC61746F72790A2020202020202020202059
S315080034EC20202020202020202020202020202020C2
S315080034FC2020546F796F686173686920556E6976F8
S3150800350C2E206F6620546563686E6F6C6F67792C16
S3150800351C204A4150414E0A436F7079726967687444
S3150800352C2028432920323030342D32303232206272
S3150800353C7920456D62656464656420616E64205209
S3150800354C65616C2D54696D652053797374656D735B
S3150800355C204C61626F7261746F72790A2020202088
S3150800356C2020202020202020477261647561746514
S3150800357C205363686F6F6C206F6620496E666F7296
S3150800358C6D6174696F6E20536369656E63652C2073
S3150800359C4E61676F796120556E69762E2C204A41EB
S315080035AC50414E0A25730000000000000000400040
S315080035BC04000000000000000000000000000000ED
S315080035CC000000008D1A00088D1A00088D1A0008D4
S315080035DC8D1A00088D1A00088D1A00088D1A000815
S315080035EC8D1A00088D1A00088D1A00088D1A000805
S315080035FC8D1A00088D1A00088D1A00088D1A0008F5
S3150800360CC91A0008C91A0008C91A0008C91A0008F4
S3150800361CC91A0008C91A0008C91A0008C91A0008E4
S3150800362CC91A0008C91A0008C91A0008C91A0008D4
S3150800363CC91A0008C91A0008C91A0008C91A0008C4
S3150800364CC91A0008C91A0008C91A0008C91A0008B4
S3150800365CC91A0008C91A0008C91A0008C91A0008A4
S3150800366CC91A0008C91A0008C91A0008C91A000894
S3150800367CC91A0008C91A0008C91A0008C91A000884
S3150800368CC91A0008C91A0008C91A0008C91A000874
S3150800369CC91A0008C91A0008C91A000865100008D2
S315080036ACC91A0008C91A0008C91A0008C91A000854
S315080036BCC91A0008C91A0008C91A0008C91A000844
S315080036CCC91A0008C91A0008C91A0008C51700083B
S315080036DCC91A0008C91A0008C91A0008C91A000824
S315080036ECC91A0008C91A0008C91A0008C91A000814
S315080036FCC91A0008C91A0008C91A0008C91A000804
S3150800370CC91A0008C91A0008C91A0008C91A0008F3
S3150800371CC91A0008C91A0008C91A0008C91A0008E3
S3150800372CC91A0008C91A0008C91A0008C91A0008D3
S3150800373CC91A0008C91A0008C91A0008C91A0008C3
S3150800374CC91A0008C91A0008C91A0008C91A0008B3
S3150800375CC91A0008C91A0008D50800080000000094
S3150800376C911700080000000002000000E11600088E
S3150800377C00000000D108000800000000020000004C
S3150800378C68160020680600200000000042000000B1
S3150800379C01000000FEFFFFFF3600000000000000DD
S315080037ACFEFFFFFF02000000000000000000000002
S315080037BC01000000000000000100000001000000EC
S315080037CC02000000010000000200000001000000D9
S315080037DC0C340008C108000802000000D826002096
S315080037ECD83600200100000000000000290400085B
S315080037FC00000000D8160020D82600200200000081
S3150800380C000000000102030401020304060708096C
S3150800381C0000000018ED00E01CED00E020ED00E0D3
S3140800382C00010002000100030001000200010074
S30D0800383C0024F400000002401C
S705080001955C
